{
  "contractName": "CallPair",
  "abi": [
    {
      "inputs": [],
      "name": "getInitHash",
      "outputs": [
        {
          "internalType": "bytes32",
          "name": "",
          "type": "bytes32"
        }
      ],
      "stateMutability": "pure",
      "type": "function"
    }
  ],
  "bytecode": "0x608060405234801561001057600080fd5b5061240c806100206000396000f3fe608060405234801561001057600080fd5b506004361061002b5760003560e01c80633c9de1b814610030575b600080fd5b61003861004a565b60405190815260200160405180910390f35b6000806040518060200161005d906100a0565b6020820181038252601f19601f8201166040525090508060405160200161008491906100ad565b6040516020818303038152906040528051906020012091505090565b6122ee806100e983390190565b6000825160005b818110156100ce57602081860181015185830152016100b4565b818111156100dd576000828501525b50919091019291505056fe60806040526001600c5534801561001557600080fd5b50604080518082018252600881526748617368204c507360c01b6020918201528151808301835260018152603160f81b9082015281517f8b73c3c69bb8fe3d512ecc4cf759cc79239f7b179b0ffacaa9a75d522b39400f818301527fc32c260823c81b38eab2360f46b21ce4b707e76d83c45bed5ea3e5a10eee43a7818401527fc89efdaa54c0f20c7adf612882df0950f5a951637e0307cdcb4c672f298b8bc660608201524660808201523060a0808301919091528351808303909101815260c09091019092528151910120600355600580546001600160a01b031916331790556121e8806101066000396000f3fe608060405234801561001057600080fd5b50600436106101c45760003560e01c806370a08231116100f9578063bc25cf7711610097578063d505accf11610071578063d505accf14610435578063dd62ed3e14610448578063e91f214e14610473578063fff6cae91461048157600080fd5b8063bc25cf77146103fc578063c45a01551461040f578063d21220a71461042257600080fd5b806389afcb44116100d357806389afcb441461039257806395d89b41146103ba578063a9059cbb146103e0578063ba9a7a56146103f357600080fd5b806370a08231146103495780637464fc3d146103695780637ecebe001461037257600080fd5b806330adf81f11610166578063485cc95511610140578063485cc955146103115780635909c0d5146103245780635a3d54931461032d5780636a6278421461033657600080fd5b806330adf81f146102c7578063313ce567146102ee5780633644e5151461030857600080fd5b8063095ea7b3116101a2578063095ea7b31461024f5780630dfe16811461027257806318160ddd1461029d57806323b872dd146102b457600080fd5b8063022c0d9f146101c957806306fdde03146101de5780630902f1ac1461021b575b600080fd5b6101dc6101d7366004611edc565b610489565b005b6102056040518060400160405280600881526020016748617368204c507360c01b81525081565b6040516102129190611fda565b60405180910390f35b61022361097f565b604080516001600160701b03948516815293909216602084015263ffffffff1690820152606001610212565b61026261025d366004611e75565b6109a9565b6040519015158152602001610212565b600654610285906001600160a01b031681565b6040516001600160a01b039091168152602001610212565b6102a660005481565b604051908152602001610212565b6102626102c2366004611dbd565b6109bf565b6102a67f6e71edae12b1b97f4d1f60370fef10105fa2faae0126114a169c64845d6126c981565b6102f6601281565b60405160ff9091168152602001610212565b6102a660035481565b6101dc61031f366004611d84565b610a58565b6102a660095481565b6102a6600a5481565b6102a6610344366004611d4a565b610ad2565b6102a6610357366004611d4a565b60016020526000908152604090205481565b6102a6600b5481565b6102a6610380366004611d4a565b60046020526000908152604090205481565b6103a56103a0366004611d4a565b610db0565b60408051928352602083019190915201610212565b610205604051806040016040528060078152602001660484153482d4c560cc1b81525081565b6102626103ee366004611e75565b61114d565b6102a66103e881565b6101dc61040a366004611d4a565b61115a565b600554610285906001600160a01b031681565b600754610285906001600160a01b031681565b6101dc610443366004611dfe565b61127d565b6102a6610456366004611d84565b600260209081526000928352604080842090915290825290205481565b6102a66001600160801b0381565b6101dc61148c565b600c546001146104b45760405162461bcd60e51b81526004016104ab9061200d565b60405180910390fd5b6000600c55841515806104c75750600084115b6105135760405162461bcd60e51b815260206004820181905260248201527f486173683a20494e53554646494349454e545f4f55545055545f414d4f554e5460448201526064016104ab565b60008061051e61097f565b5091509150816001600160701b0316871080156105435750806001600160701b031686105b61058f5760405162461bcd60e51b815260206004820152601c60248201527f486173683a20494e53554646494349454e545f4c49515549444954590000000060448201526064016104ab565b60065460075460009182916001600160a01b039182169190811690891682148015906105cd5750806001600160a01b0316896001600160a01b031614155b61060c5760405162461bcd60e51b815260206004820152601060248201526f486173683a20494e56414c49445f544f60801b60448201526064016104ab565b8a1561061d5761061d828a8d6115ce565b891561062e5761062e818a8c6115ce565b861561069b576040516375fb6bd360e01b81526001600160a01b038a16906375fb6bd3906106689033908f908f908e908e90600401611f8e565b600060405180830381600087803b15801561068257600080fd5b505af1158015610696573d6000803e3d6000fd5b505050505b6040516370a0823160e01b81523060048201526001600160a01b038316906370a082319060240160206040518083038186803b1580156106da57600080fd5b505afa1580156106ee573d6000803e3d6000fd5b505050506040513d601f19601f820116820180604052508101906107129190611ec3565b6040516370a0823160e01b81523060048201529094506001600160a01b038216906370a082319060240160206040518083038186803b15801561075457600080fd5b505afa158015610768573d6000803e3d6000fd5b505050506040513d601f19601f8201168201806040525081019061078c9190611ec3565b92505050600089856001600160701b03166107a791906120d3565b83116107b45760006107d1565b6107c78a6001600160701b0387166120d3565b6107d190846120d3565b905060006107e88a6001600160701b0387166120d3565b83116107f5576000610812565b6108088a6001600160701b0387166120d3565b61081290846120d3565b905060008211806108235750600081115b61086f5760405162461bcd60e51b815260206004820152601f60248201527f486173683a20494e53554646494349454e545f494e5055545f414d4f554e540060448201526064016104ab565b600061089161087f846002611711565b61088b876103e8611711565b90611724565b905060006108a361087f846002611711565b90506108c8620f42406108c26001600160701b038b8116908b16611711565b90611711565b6108d28383611711565b101561090a5760405162461bcd60e51b8152602060048201526007602482015266486173683a204b60c81b60448201526064016104ab565b505061091884848888611730565b60408051838152602081018390529081018c9052606081018b90526001600160a01b038a169033907fd78ad95fa46c994b6551d0da85fc275fe613ce37657fb8d5e3d130840159d8229060800160405180910390a350506001600c55505050505050505050565b6008546001600160701b0380821692600160701b830490911691600160e01b900463ffffffff1690565b60006109b6338484611917565b50600192915050565b6001600160a01b03831660009081526002602090815260408083203384529091528120546001600160801b0314610a43576001600160a01b0384166000908152600260209081526040808320338452909152902054610a1e9083611724565b6001600160a01b03851660009081526002602090815260408083203384529091529020555b610a4e848484611979565b5060019392505050565b6005546001600160a01b03163314610aa45760405162461bcd60e51b815260206004820152600f60248201526e2430b9b41d102327a92124a22222a760891b60448201526064016104ab565b600680546001600160a01b039384166001600160a01b03199182161790915560078054929093169116179055565b6000600c54600114610af65760405162461bcd60e51b81526004016104ab9061200d565b6000600c81905580610b0661097f565b506006546040516370a0823160e01b81523060048201529294509092506000916001600160a01b03909116906370a082319060240160206040518083038186803b158015610b5357600080fd5b505afa158015610b67573d6000803e3d6000fd5b505050506040513d601f19601f82011682018060405250810190610b8b9190611ec3565b6007546040516370a0823160e01b81523060048201529192506000916001600160a01b03909116906370a082319060240160206040518083038186803b158015610bd457600080fd5b505afa158015610be8573d6000803e3d6000fd5b505050506040513d601f19601f82011682018060405250810190610c0c9190611ec3565b90506000610c23836001600160701b038716611724565b90506000610c3a836001600160701b038716611724565b90506000610c488787611a1f565b60005490915080610c7f57610c6b6103e861088b610c668787611711565b611b6b565b9850610c7a60006103e8611bdb565b610cc6565b610cc36001600160701b038916610c968684611711565b610ca09190612071565b6001600160701b038916610cb48685611711565b610cbe9190612071565b611c6a565b98505b60008911610d225760405162461bcd60e51b815260206004820152602360248201527f486173683a20494e53554646494349454e545f4c49515549444954595f4d494e60448201526215115160ea1b60648201526084016104ab565b610d2c8a8a611bdb565b610d3886868a8a611730565b8115610d6257600854610d5e906001600160701b0380821691600160701b900416611711565b600b555b604080518581526020810185905233917f4c209b5fc8ad50758f13e2e1088ba56a560dff690a1c6fef26394f4c03821c4f910160405180910390a250506001600c5550949695505050505050565b600080600c54600114610dd55760405162461bcd60e51b81526004016104ab9061200d565b6000600c81905580610de561097f565b506006546007546040516370a0823160e01b81523060048201529395509193506001600160a01b039081169291169060009083906370a082319060240160206040518083038186803b158015610e3a57600080fd5b505afa158015610e4e573d6000803e3d6000fd5b505050506040513d601f19601f82011682018060405250810190610e729190611ec3565b6040516370a0823160e01b81523060048201529091506000906001600160a01b038416906370a082319060240160206040518083038186803b158015610eb757600080fd5b505afa158015610ecb573d6000803e3d6000fd5b505050506040513d601f19601f82011682018060405250810190610eef9190611ec3565b30600090815260016020526040812054919250610f0c8888611a1f565b60005490915080610f1d8487611711565b610f279190612071565b9a5080610f348486611711565b610f3e9190612071565b995060008b118015610f50575060008a115b610fa85760405162461bcd60e51b815260206004820152602360248201527f486173683a20494e53554646494349454e545f4c49515549444954595f42555260448201526213915160ea1b60648201526084016104ab565b610fb23084611c80565b610fbd878d8d6115ce565b610fc8868d8c6115ce565b6040516370a0823160e01b81523060048201526001600160a01b038816906370a082319060240160206040518083038186803b15801561100757600080fd5b505afa15801561101b573d6000803e3d6000fd5b505050506040513d601f19601f8201168201806040525081019061103f9190611ec3565b6040516370a0823160e01b81523060048201529095506001600160a01b038716906370a082319060240160206040518083038186803b15801561108157600080fd5b505afa158015611095573d6000803e3d6000fd5b505050506040513d601f19601f820116820180604052508101906110b99190611ec3565b93506110c785858b8b611730565b81156110f1576008546110ed906001600160701b0380821691600160701b900416611711565b600b555b604080518c8152602081018c90526001600160a01b038e169133917fdccd412f0b1252819cb1fd330b93224ca42612892bb3f4f789976e6d81936496910160405180910390a35050505050505050506001600c81905550915091565b60006109b6338484611979565b600c5460011461117c5760405162461bcd60e51b81526004016104ab9061200d565b6000600c556006546007546008546040516370a0823160e01b81523060048201526001600160a01b0393841693909216916112269184918691611221916001600160701b039091169084906370a08231906024015b60206040518083038186803b1580156111e957600080fd5b505afa1580156111fd573d6000803e3d6000fd5b505050506040513d601f19601f8201168201806040525081019061088b9190611ec3565b6115ce565b6008546040516370a0823160e01b8152306004820152611273918391869161122191600160701b9091046001600160701b0316906001600160a01b038516906370a08231906024016111d1565b50506001600c5550565b428410156112bd5760405162461bcd60e51b815260206004820152600d60248201526c12185cda0e8811561412549151609a1b60448201526064016104ab565b6003546001600160a01b038816600090815260046020526040812080549192917f6e71edae12b1b97f4d1f60370fef10105fa2faae0126114a169c64845d6126c9918b918b918b9190876113108361213f565b909155506040805160208101969096526001600160a01b0394851690860152929091166060840152608083015260a082015260c0810187905260e0016040516020818303038152906040528051906020012060405160200161138992919061190160f01b81526002810192909252602282015260420190565b60408051601f198184030181528282528051602091820120600080855291840180845281905260ff88169284019290925260608301869052608083018590529092509060019060a0016020604051602081039080840390855afa1580156113f4573d6000803e3d6000fd5b5050604051601f1901519150506001600160a01b0381161580159061142a5750886001600160a01b0316816001600160a01b0316145b6114765760405162461bcd60e51b815260206004820152601760248201527f486173683a20494e56414c49445f5349474e415455524500000000000000000060448201526064016104ab565b611481898989611917565b505050505050505050565b600c546001146114ae5760405162461bcd60e51b81526004016104ab9061200d565b6000600c556006546040516370a0823160e01b81523060048201526115c7916001600160a01b0316906370a082319060240160206040518083038186803b1580156114f857600080fd5b505afa15801561150c573d6000803e3d6000fd5b505050506040513d601f19601f820116820180604052508101906115309190611ec3565b6007546040516370a0823160e01b81523060048201526001600160a01b03909116906370a082319060240160206040518083038186803b15801561157357600080fd5b505afa158015611587573d6000803e3d6000fd5b505050506040513d601f19601f820116820180604052508101906115ab9190611ec3565b6008546001600160701b0380821691600160701b900416611730565b6001600c55565b604080518082018252601981527f7472616e7366657228616464726573732c75696e74323536290000000000000060209182015281516001600160a01b0385811660248301526044808301869052845180840390910181526064909201845291810180516001600160e01b031663a9059cbb60e01b1790529151600092839287169161165a9190611f72565b6000604051808303816000865af19150503d8060008114611697576040519150601f19603f3d011682016040523d82523d6000602084013e61169c565b606091505b50915091508180156116c65750805115806116c65750808060200190518101906116c69190611ea1565b61170a5760405162461bcd60e51b815260206004820152601560248201527412185cda0e881514905394d1915497d19052531151605a1b60448201526064016104ab565b5050505050565b600061171d82846120b4565b9392505050565b600061171d82846120d3565b6001600160801b03841180159061174e57506001600160801b038311155b61178b5760405162461bcd60e51b815260206004820152600e60248201526d486173683a204f564552464c4f5760901b60448201526064016104ab565b600061179c6401000000004261215a565b6008549091506000906117bc90600160e01b900463ffffffff16836120ea565b905060008163ffffffff161180156117dc57506001600160701b03841615155b80156117f057506001600160701b03831615155b1561187f578063ffffffff166118188561180986611d0a565b6001600160e01b031690611d29565b6001600160e01b031661182b91906120b4565b6009600082825461183c9190612033565b909155505063ffffffff81166118558461180987611d0a565b6001600160e01b031661186891906120b4565b600a60008282546118799190612033565b90915550505b6008805463ffffffff8416600160e01b026001600160e01b036001600160701b03898116600160701b9081026001600160e01b03199095168c83161794909417918216831794859055604080519382169282169290921783529290930490911660208201527f1c411e9a96e071241c2f21f7726b17ae89e3cab4c78be50e062b03a9fffbbad1910160405180910390a1505050505050565b6001600160a01b0383811660008181526002602090815260408083209487168084529482529182902085905590518481527f8c5be1e5ebec7d5bd14f71427d1e84f3dd0314c0f7b2291e5b200ac8c7c3b92591015b60405180910390a3505050565b6001600160a01b03831660009081526001602052604090205461199c9082611724565b6001600160a01b0380851660009081526001602052604080822093909355908416815220546119cb9082611d3e565b6001600160a01b0380841660008181526001602052604090819020939093559151908516907fddf252ad1be2c89b69c2b068fc378daa952ba7f163c4a11628f55a4df523b3ef9061196c9085815260200190565b600080600560009054906101000a90046001600160a01b03166001600160a01b031663017e7e586040518163ffffffff1660e01b815260040160206040518083038186803b158015611a7057600080fd5b505afa158015611a84573d6000803e3d6000fd5b505050506040513d601f19601f82011682018060405250810190611aa89190611d67565b600b546001600160a01b038216158015945091925090611b57578015611b52576000611ae3610c666001600160701b03888116908816611711565b90506000611af083611b6b565b905080821115611b4f576000611b12611b098484611724565b60005490611711565b90506000611b2b83611b25866003611711565b90611d3e565b90506000611b398284612071565b90508015611b4b57611b4b8782611bdb565b5050505b50505b611b63565b8015611b63576000600b555b505092915050565b60006003821115611bcc5750806000611b85600283612071565b611b90906001612033565b90505b81811015611bc657905080600281611bab8186612071565b611bb59190612033565b611bbf9190612071565b9050611b93565b50919050565b8115611bd6575060015b919050565b600054611be89082611d3e565b60009081556001600160a01b038316815260016020526040902054611c0d9082611d3e565b6001600160a01b0383166000818152600160205260408082209390935591519091907fddf252ad1be2c89b69c2b068fc378daa952ba7f163c4a11628f55a4df523b3ef90611c5e9085815260200190565b60405180910390a35050565b6000818310611c79578161171d565b5090919050565b6001600160a01b038216600090815260016020526040902054611ca39082611724565b6001600160a01b03831660009081526001602052604081209190915554611cca9082611724565b60009081556040518281526001600160a01b038416907fddf252ad1be2c89b69c2b068fc378daa952ba7f163c4a11628f55a4df523b3ef90602001611c5e565b6000611d23600160701b6001600160701b038416612085565b92915050565b600061171d6001600160701b0383168461204b565b600061171d8284612033565b600060208284031215611d5c57600080fd5b813561171d8161219a565b600060208284031215611d7957600080fd5b815161171d8161219a565b60008060408385031215611d9757600080fd5b8235611da28161219a565b91506020830135611db28161219a565b809150509250929050565b600080600060608486031215611dd257600080fd5b8335611ddd8161219a565b92506020840135611ded8161219a565b929592945050506040919091013590565b600080600080600080600060e0888a031215611e1957600080fd5b8735611e248161219a565b96506020880135611e348161219a565b95506040880135945060608801359350608088013560ff81168114611e5857600080fd5b9699959850939692959460a0840135945060c09093013592915050565b60008060408385031215611e8857600080fd5b8235611e938161219a565b946020939093013593505050565b600060208284031215611eb357600080fd5b8151801515811461171d57600080fd5b600060208284031215611ed557600080fd5b5051919050565b600080600080600060808688031215611ef457600080fd5b85359450602086013593506040860135611f0d8161219a565b9250606086013567ffffffffffffffff80821115611f2a57600080fd5b818801915088601f830112611f3e57600080fd5b813581811115611f4d57600080fd5b896020828501011115611f5f57600080fd5b9699959850939650602001949392505050565b60008251611f8481846020870161210f565b9190910192915050565b60018060a01b038616815284602082015283604082015260806060820152816080820152818360a0830137600081830160a090810191909152601f909201601f19160101949350505050565b6020815260008251806020840152611ff981604085016020870161210f565b601f01601f19169190910160400192915050565b6020808252600c908201526b12185cda0e881313d0d2d15160a21b604082015260600190565b600082198211156120465761204661216e565b500190565b60006001600160e01b038381168061206557612065612184565b92169190910492915050565b60008261208057612080612184565b500490565b60006001600160e01b03828116848216811515828404821116156120ab576120ab61216e565b02949350505050565b60008160001904831182151516156120ce576120ce61216e565b500290565b6000828210156120e5576120e561216e565b500390565b600063ffffffff838116908316818110156121075761210761216e565b039392505050565b60005b8381101561212a578181015183820152602001612112565b83811115612139576000848401525b50505050565b60006000198214156121535761215361216e565b5060010190565b60008261216957612169612184565b500690565b634e487b7160e01b600052601160045260246000fd5b634e487b7160e01b600052601260045260246000fd5b6001600160a01b03811681146121af57600080fd5b5056fea26469706673582212208f3d510b98923c7238d43ac425a373810aaa9d77f6215464aaee51389d486f3c64736f6c63430008060033a2646970667358221220b624d9c92513428713732208d4a9236f09d0384540205ac4fd157da41341248464736f6c63430008060033",
  "immutableReferences": {},
  "source": "pragma solidity =0.8.6;\nimport './HashPair.sol';\n\ncontract CallPair {\n    function getInitHash() public pure returns(bytes32){\n        bytes memory bytecode = type(HashPair).creationCode;\n        return keccak256(abi.encodePacked(bytecode));\n    }\n}",
  "sourcePath": "/workspace/Hashswap-core/contracts/CallPair.sol",
  "compiler": {
    "name": "solc",
    "version": "0.8.6+commit.11564f7e.Emscripten.clang"
  },
  "schemaVersion": "3.4.8",
  "updatedAt": "2022-07-08T17:13:27.012Z",
  "devdoc": {
    "kind": "dev",
    "methods": {},
    "version": 1
  },
  "userdoc": {
    "kind": "user",
    "methods": {},
    "version": 1
  }
}