{
  "contractName": "HashERC20",
  "abi": [
    {
      "inputs": [],
      "stateMutability": "nonpayable",
      "type": "constructor"
    },
    {
      "anonymous": false,
      "inputs": [
        {
          "indexed": true,
          "internalType": "address",
          "name": "owner",
          "type": "address"
        },
        {
          "indexed": true,
          "internalType": "address",
          "name": "spender",
          "type": "address"
        },
        {
          "indexed": false,
          "internalType": "uint256",
          "name": "value",
          "type": "uint256"
        }
      ],
      "name": "Approval",
      "type": "event"
    },
    {
      "anonymous": false,
      "inputs": [
        {
          "indexed": true,
          "internalType": "address",
          "name": "from",
          "type": "address"
        },
        {
          "indexed": true,
          "internalType": "address",
          "name": "to",
          "type": "address"
        },
        {
          "indexed": false,
          "internalType": "uint256",
          "name": "value",
          "type": "uint256"
        }
      ],
      "name": "Transfer",
      "type": "event"
    },
    {
      "inputs": [],
      "name": "DOMAIN_SEPARATOR",
      "outputs": [
        {
          "internalType": "bytes32",
          "name": "",
          "type": "bytes32"
        }
      ],
      "stateMutability": "view",
      "type": "function"
    },
    {
      "inputs": [],
      "name": "MASK",
      "outputs": [
        {
          "internalType": "uint256",
          "name": "",
          "type": "uint256"
        }
      ],
      "stateMutability": "view",
      "type": "function"
    },
    {
      "inputs": [],
      "name": "PERMIT_TYPEHASH",
      "outputs": [
        {
          "internalType": "bytes32",
          "name": "",
          "type": "bytes32"
        }
      ],
      "stateMutability": "view",
      "type": "function"
    },
    {
      "inputs": [
        {
          "internalType": "address",
          "name": "",
          "type": "address"
        },
        {
          "internalType": "address",
          "name": "",
          "type": "address"
        }
      ],
      "name": "allowance",
      "outputs": [
        {
          "internalType": "uint256",
          "name": "",
          "type": "uint256"
        }
      ],
      "stateMutability": "view",
      "type": "function"
    },
    {
      "inputs": [
        {
          "internalType": "address",
          "name": "",
          "type": "address"
        }
      ],
      "name": "balanceOf",
      "outputs": [
        {
          "internalType": "uint256",
          "name": "",
          "type": "uint256"
        }
      ],
      "stateMutability": "view",
      "type": "function"
    },
    {
      "inputs": [],
      "name": "decimals",
      "outputs": [
        {
          "internalType": "uint8",
          "name": "",
          "type": "uint8"
        }
      ],
      "stateMutability": "view",
      "type": "function"
    },
    {
      "inputs": [],
      "name": "name",
      "outputs": [
        {
          "internalType": "string",
          "name": "",
          "type": "string"
        }
      ],
      "stateMutability": "view",
      "type": "function"
    },
    {
      "inputs": [
        {
          "internalType": "address",
          "name": "",
          "type": "address"
        }
      ],
      "name": "nonces",
      "outputs": [
        {
          "internalType": "uint256",
          "name": "",
          "type": "uint256"
        }
      ],
      "stateMutability": "view",
      "type": "function"
    },
    {
      "inputs": [],
      "name": "symbol",
      "outputs": [
        {
          "internalType": "string",
          "name": "",
          "type": "string"
        }
      ],
      "stateMutability": "view",
      "type": "function"
    },
    {
      "inputs": [],
      "name": "totalSupply",
      "outputs": [
        {
          "internalType": "uint256",
          "name": "",
          "type": "uint256"
        }
      ],
      "stateMutability": "view",
      "type": "function"
    },
    {
      "inputs": [
        {
          "internalType": "address",
          "name": "spender",
          "type": "address"
        },
        {
          "internalType": "uint256",
          "name": "value",
          "type": "uint256"
        }
      ],
      "name": "approve",
      "outputs": [
        {
          "internalType": "bool",
          "name": "",
          "type": "bool"
        }
      ],
      "stateMutability": "nonpayable",
      "type": "function"
    },
    {
      "inputs": [
        {
          "internalType": "address",
          "name": "to",
          "type": "address"
        },
        {
          "internalType": "uint256",
          "name": "value",
          "type": "uint256"
        }
      ],
      "name": "transfer",
      "outputs": [
        {
          "internalType": "bool",
          "name": "",
          "type": "bool"
        }
      ],
      "stateMutability": "nonpayable",
      "type": "function"
    },
    {
      "inputs": [
        {
          "internalType": "address",
          "name": "from",
          "type": "address"
        },
        {
          "internalType": "address",
          "name": "to",
          "type": "address"
        },
        {
          "internalType": "uint256",
          "name": "value",
          "type": "uint256"
        }
      ],
      "name": "transferFrom",
      "outputs": [
        {
          "internalType": "bool",
          "name": "",
          "type": "bool"
        }
      ],
      "stateMutability": "nonpayable",
      "type": "function"
    },
    {
      "inputs": [
        {
          "internalType": "address",
          "name": "owner",
          "type": "address"
        },
        {
          "internalType": "address",
          "name": "spender",
          "type": "address"
        },
        {
          "internalType": "uint256",
          "name": "value",
          "type": "uint256"
        },
        {
          "internalType": "uint256",
          "name": "deadline",
          "type": "uint256"
        },
        {
          "internalType": "uint8",
          "name": "v",
          "type": "uint8"
        },
        {
          "internalType": "bytes32",
          "name": "r",
          "type": "bytes32"
        },
        {
          "internalType": "bytes32",
          "name": "s",
          "type": "bytes32"
        }
      ],
      "name": "permit",
      "outputs": [],
      "stateMutability": "nonpayable",
      "type": "function"
    }
  ],
  "bytecode": "0x608060405234801561001057600080fd5b50604080518082018252600881526748617368204c507360c01b6020918201528151808301835260018152603160f81b9082015281517f8b73c3c69bb8fe3d512ecc4cf759cc79239f7b179b0ffacaa9a75d522b39400f818301527fc32c260823c81b38eab2360f46b21ce4b707e76d83c45bed5ea3e5a10eee43a7818401527fc89efdaa54c0f20c7adf612882df0950f5a951637e0307cdcb4c672f298b8bc660608201524660808201523060a0808301919091528351808303909101815260c090910190925281519101206003556108af806100ef6000396000f3fe608060405234801561001057600080fd5b50600436106100ea5760003560e01c806370a082311161008c578063a9059cbb11610066578063a9059cbb14610229578063d505accf1461023c578063dd62ed3e14610251578063e91f214e1461027c57600080fd5b806370a08231146101c35780637ecebe00146101e357806395d89b411461020357600080fd5b806323b872dd116100c857806323b872dd1461016657806330adf81f14610179578063313ce567146101a05780633644e515146101ba57600080fd5b806306fdde03146100ef578063095ea7b31461012c57806318160ddd1461014f575b600080fd5b6101166040518060400160405280600881526020016748617368204c507360c01b81525081565b60405161012391906107c4565b60405180910390f35b61013f61013a36600461079a565b61028a565b6040519015158152602001610123565b61015860005481565b604051908152602001610123565b61013f6101743660046106eb565b6102a0565b6101587f6e71edae12b1b97f4d1f60370fef10105fa2faae0126114a169c64845d6126c981565b6101a8601281565b60405160ff9091168152602001610123565b61015860035481565b6101586101d136600461069d565b60016020526000908152604090205481565b6101586101f136600461069d565b60046020526000908152604090205481565b610116604051806040016040528060078152602001660484153482d4c560cc1b81525081565b61013f61023736600461079a565b610339565b61024f61024a366004610727565b610346565b005b61015861025f3660046106b8565b600260209081526000928352604080842090915290825290205481565b6101586001600160801b0381565b600061029733848461055a565b50600192915050565b6001600160a01b03831660009081526002602090815260408083203384529091528120546001600160801b0314610324576001600160a01b03841660009081526002602090815260408083203384529091529020546102ff90836105bc565b6001600160a01b03851660009081526002602090815260408083203384529091529020555b61032f8484846105cf565b5060019392505050565b60006102973384846105cf565b4284101561038b5760405162461bcd60e51b815260206004820152600d60248201526c12185cda0e8811561412549151609a1b60448201526064015b60405180910390fd5b6003546001600160a01b038816600090815260046020526040812080549192917f6e71edae12b1b97f4d1f60370fef10105fa2faae0126114a169c64845d6126c9918b918b918b9190876103de83610848565b909155506040805160208101969096526001600160a01b0394851690860152929091166060840152608083015260a082015260c0810187905260e0016040516020818303038152906040528051906020012060405160200161045792919061190160f01b81526002810192909252602282015260420190565b60408051601f198184030181528282528051602091820120600080855291840180845281905260ff88169284019290925260608301869052608083018590529092509060019060a0016020604051602081039080840390855afa1580156104c2573d6000803e3d6000fd5b5050604051601f1901519150506001600160a01b038116158015906104f85750886001600160a01b0316816001600160a01b0316145b6105445760405162461bcd60e51b815260206004820152601760248201527f486173683a20494e56414c49445f5349474e41545552450000000000000000006044820152606401610382565b61054f89898961055a565b505050505050505050565b6001600160a01b0383811660008181526002602090815260408083209487168084529482529182902085905590518481527f8c5be1e5ebec7d5bd14f71427d1e84f3dd0314c0f7b2291e5b200ac8c7c3b92591015b60405180910390a3505050565b60006105c88284610831565b9392505050565b6001600160a01b0383166000908152600160205260409020546105f290826105bc565b6001600160a01b0380851660009081526001602052604080822093909355908416815220546106219082610675565b6001600160a01b0380841660008181526001602052604090819020939093559151908516907fddf252ad1be2c89b69c2b068fc378daa952ba7f163c4a11628f55a4df523b3ef906105af9085815260200190565b60006105c88284610819565b80356001600160a01b038116811461069857600080fd5b919050565b6000602082840312156106af57600080fd5b6105c882610681565b600080604083850312156106cb57600080fd5b6106d483610681565b91506106e260208401610681565b90509250929050565b60008060006060848603121561070057600080fd5b61070984610681565b925061071760208501610681565b9150604084013590509250925092565b600080600080600080600060e0888a03121561074257600080fd5b61074b88610681565b965061075960208901610681565b95506040880135945060608801359350608088013560ff8116811461077d57600080fd5b9699959850939692959460a0840135945060c09093013592915050565b600080604083850312156107ad57600080fd5b6107b683610681565b946020939093013593505050565b600060208083528351808285015260005b818110156107f1578581018301518582016040015282016107d5565b81811115610803576000604083870101525b50601f01601f1916929092016040019392505050565b6000821982111561082c5761082c610863565b500190565b60008282101561084357610843610863565b500390565b600060001982141561085c5761085c610863565b5060010190565b634e487b7160e01b600052601160045260246000fdfea2646970667358221220b13cd9af32f3a8a0e5aa63046efeadd97868c103394fb207bd43732a9d182b9364736f6c63430008060033",
  "immutableReferences": {},
  "source": "// SPDX-License-Identifier: MIT\npragma solidity ^0.8.0;\n\nimport './libraries/SafeMath.sol';\n\ncontract HashERC20{\n    using SafeMath for uint;\n\n    string public constant name = 'Hash LPs';\n    string public constant symbol = 'HASH-LP';\n    uint8 public constant decimals = 18;\n    uint  public totalSupply;\n    mapping(address => uint) public balanceOf;\n    mapping(address => mapping(address => uint)) public allowance;\n    uint256 public constant MASK = type(uint128).max;\n\n    bytes32 public DOMAIN_SEPARATOR;\n    // keccak256(\"Permit(address owner,address spender,uint256 value,uint256 nonce,uint256 deadline)\");\n    bytes32 public constant PERMIT_TYPEHASH = 0x6e71edae12b1b97f4d1f60370fef10105fa2faae0126114a169c64845d6126c9;\n    mapping(address => uint) public nonces;\n\n    event Approval(address indexed owner, address indexed spender, uint value);\n    event Transfer(address indexed from, address indexed to, uint value);\n\n    constructor(){\n        uint chainId;\n        assembly {\n            chainId := chainid()\n        }\n        DOMAIN_SEPARATOR = keccak256(\n            abi.encode(\n                keccak256('EIP712Domain(string name,string version,uint256 chainId,address verifyingContract)'),\n                keccak256(bytes(name)),\n                keccak256(bytes('1')),\n                chainId,\n                address(this)\n            )\n        );\n    }\n\n    function _mint(address to, uint value) internal {\n        totalSupply = totalSupply.add(value);\n        balanceOf[to] = balanceOf[to].add(value);\n        emit Transfer(address(0), to, value);\n    }\n\n    function _burn(address from, uint value) internal {\n        balanceOf[from] = balanceOf[from].sub(value);\n        totalSupply = totalSupply.sub(value);\n        emit Transfer(from, address(0), value);\n    }\n\n    function _approve(address owner, address spender, uint value) private {\n        allowance[owner][spender] = value;\n        emit Approval(owner, spender, value);\n    }\n\n    function _transfer(address from, address to, uint value) private {\n        balanceOf[from] = balanceOf[from].sub(value);\n        balanceOf[to] = balanceOf[to].add(value);\n        emit Transfer(from, to, value);\n    }\n\n    function approve(address spender, uint value) external returns (bool) {\n        _approve(msg.sender, spender, value);\n        return true;\n    }\n\n    function transfer(address to, uint value) external returns (bool) {\n        _transfer(msg.sender, to, value);\n        return true;\n    }\n\n    function transferFrom(address from, address to, uint value) external returns (bool) {\n        if (allowance[from][msg.sender] != MASK) {\n            allowance[from][msg.sender] = allowance[from][msg.sender].sub(value);\n        }\n        _transfer(from, to, value);\n        return true;\n    }\n\n    function permit(address owner, address spender, uint value, uint deadline, uint8 v, bytes32 r, bytes32 s) external {\n        require(deadline >= block.timestamp, 'Hash: EXPIRED');\n        bytes32 digest = keccak256(\n            abi.encodePacked(\n                '\\x19\\x01',\n                DOMAIN_SEPARATOR,\n                keccak256(abi.encode(PERMIT_TYPEHASH, owner, spender, value, nonces[owner]++, deadline))\n            )\n        );\n        address recoveredAddress = ecrecover(digest, v, r, s);\n        require(recoveredAddress != address(0) && recoveredAddress == owner, 'Hash: INVALID_SIGNATURE');\n        _approve(owner, spender, value);\n    }\n}\n",
  "sourcePath": "/workspace/Hashswap-core/contracts/HashERC20.sol",
  "compiler": {
    "name": "solc",
    "version": "0.8.6+commit.11564f7e.Emscripten.clang"
  },
  "schemaVersion": "3.4.8",
  "updatedAt": "2022-07-08T17:13:27.013Z",
  "devdoc": {
    "kind": "dev",
    "methods": {},
    "version": 1
  },
  "userdoc": {
    "kind": "user",
    "methods": {},
    "version": 1
  }
}