{
  "contractName": "HashRouter",
  "abi": [
    {
      "inputs": [
        {
          "internalType": "address",
          "name": "_factory",
          "type": "address"
        },
        {
          "internalType": "address",
          "name": "_WETH",
          "type": "address"
        }
      ],
      "stateMutability": "nonpayable",
      "type": "constructor"
    },
    {
      "anonymous": false,
      "inputs": [
        {
          "indexed": true,
          "internalType": "address",
          "name": "previousOwner",
          "type": "address"
        },
        {
          "indexed": true,
          "internalType": "address",
          "name": "newOwner",
          "type": "address"
        }
      ],
      "name": "OwnershipTransferred",
      "type": "event"
    },
    {
      "inputs": [],
      "name": "MASK",
      "outputs": [
        {
          "internalType": "uint256",
          "name": "",
          "type": "uint256"
        }
      ],
      "stateMutability": "view",
      "type": "function"
    },
    {
      "inputs": [],
      "name": "WETH",
      "outputs": [
        {
          "internalType": "address",
          "name": "",
          "type": "address"
        }
      ],
      "stateMutability": "view",
      "type": "function"
    },
    {
      "inputs": [],
      "name": "factory",
      "outputs": [
        {
          "internalType": "address",
          "name": "",
          "type": "address"
        }
      ],
      "stateMutability": "view",
      "type": "function"
    },
    {
      "inputs": [],
      "name": "owner",
      "outputs": [
        {
          "internalType": "address",
          "name": "",
          "type": "address"
        }
      ],
      "stateMutability": "view",
      "type": "function"
    },
    {
      "inputs": [],
      "name": "renounceOwnership",
      "outputs": [],
      "stateMutability": "nonpayable",
      "type": "function"
    },
    {
      "inputs": [
        {
          "internalType": "address",
          "name": "newOwner",
          "type": "address"
        }
      ],
      "name": "transferOwnership",
      "outputs": [],
      "stateMutability": "nonpayable",
      "type": "function"
    },
    {
      "stateMutability": "payable",
      "type": "receive"
    },
    {
      "inputs": [
        {
          "internalType": "address",
          "name": "tokenA",
          "type": "address"
        },
        {
          "internalType": "address",
          "name": "tokenB",
          "type": "address"
        },
        {
          "internalType": "uint256",
          "name": "amountADesired",
          "type": "uint256"
        },
        {
          "internalType": "uint256",
          "name": "amountBDesired",
          "type": "uint256"
        },
        {
          "internalType": "uint256",
          "name": "amountAMin",
          "type": "uint256"
        },
        {
          "internalType": "uint256",
          "name": "amountBMin",
          "type": "uint256"
        },
        {
          "internalType": "address",
          "name": "to",
          "type": "address"
        },
        {
          "internalType": "uint256",
          "name": "deadline",
          "type": "uint256"
        }
      ],
      "name": "addLiquidity",
      "outputs": [
        {
          "internalType": "uint256",
          "name": "amountA",
          "type": "uint256"
        },
        {
          "internalType": "uint256",
          "name": "amountB",
          "type": "uint256"
        },
        {
          "internalType": "uint256",
          "name": "liquidity",
          "type": "uint256"
        }
      ],
      "stateMutability": "nonpayable",
      "type": "function"
    },
    {
      "inputs": [
        {
          "internalType": "address",
          "name": "token",
          "type": "address"
        },
        {
          "internalType": "uint256",
          "name": "amountTokenDesired",
          "type": "uint256"
        },
        {
          "internalType": "uint256",
          "name": "amountTokenMin",
          "type": "uint256"
        },
        {
          "internalType": "uint256",
          "name": "amountETHMin",
          "type": "uint256"
        },
        {
          "internalType": "address",
          "name": "to",
          "type": "address"
        },
        {
          "internalType": "uint256",
          "name": "deadline",
          "type": "uint256"
        }
      ],
      "name": "addLiquidityETH",
      "outputs": [
        {
          "internalType": "uint256",
          "name": "amountToken",
          "type": "uint256"
        },
        {
          "internalType": "uint256",
          "name": "amountETH",
          "type": "uint256"
        },
        {
          "internalType": "uint256",
          "name": "liquidity",
          "type": "uint256"
        }
      ],
      "stateMutability": "payable",
      "type": "function"
    },
    {
      "inputs": [
        {
          "internalType": "address",
          "name": "tokenA",
          "type": "address"
        },
        {
          "internalType": "address",
          "name": "tokenB",
          "type": "address"
        },
        {
          "internalType": "uint256",
          "name": "liquidity",
          "type": "uint256"
        },
        {
          "internalType": "uint256",
          "name": "amountAMin",
          "type": "uint256"
        },
        {
          "internalType": "uint256",
          "name": "amountBMin",
          "type": "uint256"
        },
        {
          "internalType": "address",
          "name": "to",
          "type": "address"
        },
        {
          "internalType": "uint256",
          "name": "deadline",
          "type": "uint256"
        }
      ],
      "name": "removeLiquidity",
      "outputs": [
        {
          "internalType": "uint256",
          "name": "amountA",
          "type": "uint256"
        },
        {
          "internalType": "uint256",
          "name": "amountB",
          "type": "uint256"
        }
      ],
      "stateMutability": "nonpayable",
      "type": "function"
    },
    {
      "inputs": [
        {
          "internalType": "address",
          "name": "token",
          "type": "address"
        },
        {
          "internalType": "uint256",
          "name": "liquidity",
          "type": "uint256"
        },
        {
          "internalType": "uint256",
          "name": "amountTokenMin",
          "type": "uint256"
        },
        {
          "internalType": "uint256",
          "name": "amountETHMin",
          "type": "uint256"
        },
        {
          "internalType": "address",
          "name": "to",
          "type": "address"
        },
        {
          "internalType": "uint256",
          "name": "deadline",
          "type": "uint256"
        }
      ],
      "name": "removeLiquidityETH",
      "outputs": [
        {
          "internalType": "uint256",
          "name": "amountToken",
          "type": "uint256"
        },
        {
          "internalType": "uint256",
          "name": "amountETH",
          "type": "uint256"
        }
      ],
      "stateMutability": "nonpayable",
      "type": "function"
    },
    {
      "inputs": [
        {
          "internalType": "address",
          "name": "tokenA",
          "type": "address"
        },
        {
          "internalType": "address",
          "name": "tokenB",
          "type": "address"
        },
        {
          "internalType": "uint256",
          "name": "liquidity",
          "type": "uint256"
        },
        {
          "internalType": "uint256",
          "name": "amountAMin",
          "type": "uint256"
        },
        {
          "internalType": "uint256",
          "name": "amountBMin",
          "type": "uint256"
        },
        {
          "internalType": "address",
          "name": "to",
          "type": "address"
        },
        {
          "internalType": "uint256",
          "name": "deadline",
          "type": "uint256"
        },
        {
          "internalType": "bool",
          "name": "approveMax",
          "type": "bool"
        },
        {
          "internalType": "uint8",
          "name": "v",
          "type": "uint8"
        },
        {
          "internalType": "bytes32",
          "name": "r",
          "type": "bytes32"
        },
        {
          "internalType": "bytes32",
          "name": "s",
          "type": "bytes32"
        }
      ],
      "name": "removeLiquidityWithPermit",
      "outputs": [
        {
          "internalType": "uint256",
          "name": "amountA",
          "type": "uint256"
        },
        {
          "internalType": "uint256",
          "name": "amountB",
          "type": "uint256"
        }
      ],
      "stateMutability": "nonpayable",
      "type": "function"
    },
    {
      "inputs": [
        {
          "internalType": "address",
          "name": "token",
          "type": "address"
        },
        {
          "internalType": "uint256",
          "name": "liquidity",
          "type": "uint256"
        },
        {
          "internalType": "uint256",
          "name": "amountTokenMin",
          "type": "uint256"
        },
        {
          "internalType": "uint256",
          "name": "amountETHMin",
          "type": "uint256"
        },
        {
          "internalType": "address",
          "name": "to",
          "type": "address"
        },
        {
          "internalType": "uint256",
          "name": "deadline",
          "type": "uint256"
        },
        {
          "internalType": "bool",
          "name": "approveMax",
          "type": "bool"
        },
        {
          "internalType": "uint8",
          "name": "v",
          "type": "uint8"
        },
        {
          "internalType": "bytes32",
          "name": "r",
          "type": "bytes32"
        },
        {
          "internalType": "bytes32",
          "name": "s",
          "type": "bytes32"
        }
      ],
      "name": "removeLiquidityETHWithPermit",
      "outputs": [
        {
          "internalType": "uint256",
          "name": "amountToken",
          "type": "uint256"
        },
        {
          "internalType": "uint256",
          "name": "amountETH",
          "type": "uint256"
        }
      ],
      "stateMutability": "nonpayable",
      "type": "function"
    },
    {
      "inputs": [
        {
          "internalType": "address",
          "name": "token",
          "type": "address"
        },
        {
          "internalType": "uint256",
          "name": "liquidity",
          "type": "uint256"
        },
        {
          "internalType": "uint256",
          "name": "amountTokenMin",
          "type": "uint256"
        },
        {
          "internalType": "uint256",
          "name": "amountETHMin",
          "type": "uint256"
        },
        {
          "internalType": "address",
          "name": "to",
          "type": "address"
        },
        {
          "internalType": "uint256",
          "name": "deadline",
          "type": "uint256"
        }
      ],
      "name": "removeLiquidityETHSupportingFeeOnTransferTokens",
      "outputs": [
        {
          "internalType": "uint256",
          "name": "amountETH",
          "type": "uint256"
        }
      ],
      "stateMutability": "nonpayable",
      "type": "function"
    },
    {
      "inputs": [
        {
          "internalType": "address",
          "name": "token",
          "type": "address"
        },
        {
          "internalType": "uint256",
          "name": "liquidity",
          "type": "uint256"
        },
        {
          "internalType": "uint256",
          "name": "amountTokenMin",
          "type": "uint256"
        },
        {
          "internalType": "uint256",
          "name": "amountETHMin",
          "type": "uint256"
        },
        {
          "internalType": "address",
          "name": "to",
          "type": "address"
        },
        {
          "internalType": "uint256",
          "name": "deadline",
          "type": "uint256"
        },
        {
          "internalType": "bool",
          "name": "approveMax",
          "type": "bool"
        },
        {
          "internalType": "uint8",
          "name": "v",
          "type": "uint8"
        },
        {
          "internalType": "bytes32",
          "name": "r",
          "type": "bytes32"
        },
        {
          "internalType": "bytes32",
          "name": "s",
          "type": "bytes32"
        }
      ],
      "name": "removeLiquidityETHWithPermitSupportingFeeOnTransferTokens",
      "outputs": [
        {
          "internalType": "uint256",
          "name": "amountETH",
          "type": "uint256"
        }
      ],
      "stateMutability": "nonpayable",
      "type": "function"
    },
    {
      "inputs": [
        {
          "internalType": "uint256",
          "name": "amountIn",
          "type": "uint256"
        },
        {
          "internalType": "uint256",
          "name": "amountOutMin",
          "type": "uint256"
        },
        {
          "internalType": "address[]",
          "name": "path",
          "type": "address[]"
        },
        {
          "internalType": "address",
          "name": "to",
          "type": "address"
        },
        {
          "internalType": "uint256",
          "name": "deadline",
          "type": "uint256"
        }
      ],
      "name": "swapExactTokensForTokens",
      "outputs": [
        {
          "internalType": "uint256[]",
          "name": "amounts",
          "type": "uint256[]"
        }
      ],
      "stateMutability": "nonpayable",
      "type": "function"
    },
    {
      "inputs": [
        {
          "internalType": "uint256",
          "name": "amountOut",
          "type": "uint256"
        },
        {
          "internalType": "uint256",
          "name": "amountInMax",
          "type": "uint256"
        },
        {
          "internalType": "address[]",
          "name": "path",
          "type": "address[]"
        },
        {
          "internalType": "address",
          "name": "to",
          "type": "address"
        },
        {
          "internalType": "uint256",
          "name": "deadline",
          "type": "uint256"
        }
      ],
      "name": "swapTokensForExactTokens",
      "outputs": [
        {
          "internalType": "uint256[]",
          "name": "amounts",
          "type": "uint256[]"
        }
      ],
      "stateMutability": "nonpayable",
      "type": "function"
    },
    {
      "inputs": [
        {
          "internalType": "uint256",
          "name": "amountOutMin",
          "type": "uint256"
        },
        {
          "internalType": "address[]",
          "name": "path",
          "type": "address[]"
        },
        {
          "internalType": "address",
          "name": "to",
          "type": "address"
        },
        {
          "internalType": "uint256",
          "name": "deadline",
          "type": "uint256"
        }
      ],
      "name": "swapExactETHForTokens",
      "outputs": [
        {
          "internalType": "uint256[]",
          "name": "amounts",
          "type": "uint256[]"
        }
      ],
      "stateMutability": "payable",
      "type": "function"
    },
    {
      "inputs": [
        {
          "internalType": "uint256",
          "name": "amountOut",
          "type": "uint256"
        },
        {
          "internalType": "uint256",
          "name": "amountInMax",
          "type": "uint256"
        },
        {
          "internalType": "address[]",
          "name": "path",
          "type": "address[]"
        },
        {
          "internalType": "address",
          "name": "to",
          "type": "address"
        },
        {
          "internalType": "uint256",
          "name": "deadline",
          "type": "uint256"
        }
      ],
      "name": "swapTokensForExactETH",
      "outputs": [
        {
          "internalType": "uint256[]",
          "name": "amounts",
          "type": "uint256[]"
        }
      ],
      "stateMutability": "nonpayable",
      "type": "function"
    },
    {
      "inputs": [
        {
          "internalType": "uint256",
          "name": "amountIn",
          "type": "uint256"
        },
        {
          "internalType": "uint256",
          "name": "amountOutMin",
          "type": "uint256"
        },
        {
          "internalType": "address[]",
          "name": "path",
          "type": "address[]"
        },
        {
          "internalType": "address",
          "name": "to",
          "type": "address"
        },
        {
          "internalType": "uint256",
          "name": "deadline",
          "type": "uint256"
        }
      ],
      "name": "swapExactTokensForETH",
      "outputs": [
        {
          "internalType": "uint256[]",
          "name": "amounts",
          "type": "uint256[]"
        }
      ],
      "stateMutability": "nonpayable",
      "type": "function"
    },
    {
      "inputs": [
        {
          "internalType": "uint256",
          "name": "amountOut",
          "type": "uint256"
        },
        {
          "internalType": "address[]",
          "name": "path",
          "type": "address[]"
        },
        {
          "internalType": "address",
          "name": "to",
          "type": "address"
        },
        {
          "internalType": "uint256",
          "name": "deadline",
          "type": "uint256"
        }
      ],
      "name": "swapETHForExactTokens",
      "outputs": [
        {
          "internalType": "uint256[]",
          "name": "amounts",
          "type": "uint256[]"
        }
      ],
      "stateMutability": "payable",
      "type": "function"
    },
    {
      "inputs": [
        {
          "internalType": "uint256",
          "name": "amountIn",
          "type": "uint256"
        },
        {
          "internalType": "uint256",
          "name": "amountOutMin",
          "type": "uint256"
        },
        {
          "internalType": "address[]",
          "name": "path",
          "type": "address[]"
        },
        {
          "internalType": "address",
          "name": "to",
          "type": "address"
        },
        {
          "internalType": "uint256",
          "name": "deadline",
          "type": "uint256"
        }
      ],
      "name": "swapExactTokensForTokensSupportingFeeOnTransferTokens",
      "outputs": [],
      "stateMutability": "nonpayable",
      "type": "function"
    },
    {
      "inputs": [
        {
          "internalType": "uint256",
          "name": "amountOutMin",
          "type": "uint256"
        },
        {
          "internalType": "address[]",
          "name": "path",
          "type": "address[]"
        },
        {
          "internalType": "address",
          "name": "to",
          "type": "address"
        },
        {
          "internalType": "uint256",
          "name": "deadline",
          "type": "uint256"
        }
      ],
      "name": "swapExactETHForTokensSupportingFeeOnTransferTokens",
      "outputs": [],
      "stateMutability": "payable",
      "type": "function"
    },
    {
      "inputs": [
        {
          "internalType": "uint256",
          "name": "amountIn",
          "type": "uint256"
        },
        {
          "internalType": "uint256",
          "name": "amountOutMin",
          "type": "uint256"
        },
        {
          "internalType": "address[]",
          "name": "path",
          "type": "address[]"
        },
        {
          "internalType": "address",
          "name": "to",
          "type": "address"
        },
        {
          "internalType": "uint256",
          "name": "deadline",
          "type": "uint256"
        }
      ],
      "name": "swapExactTokensForETHSupportingFeeOnTransferTokens",
      "outputs": [],
      "stateMutability": "nonpayable",
      "type": "function"
    }
  ],
  "bytecode": "0x60806040523480156200001157600080fd5b5060405162003be938038062003be98339810160408190526200003491620000de565b6200003f3362000071565b600180546001600160a01b039384166001600160a01b0319918216179091556002805492909316911617905562000116565b600080546001600160a01b038381166001600160a01b0319831681178455604051919092169283917f8be0079c531659141344cd1fd0a4f28419497f9722a3daafe3b4186f6b6457e09190a35050565b80516001600160a01b0381168114620000d957600080fd5b919050565b60008060408385031215620000f257600080fd5b620000fd83620000c1565b91506200010d60208401620000c1565b90509250929050565b613ac380620001266000396000f3fe6080604052600436106101445760003560e01c80638da5cb5b116100b6578063ded9382a1161006f578063ded9382a146103ac578063e8e33700146103cc578063e91f214e14610407578063f2fde38b1461041d578063f305d7191461043d578063fb3bdb411461045057600080fd5b80638da5cb5b146102e7578063ad5c464814610319578063af2979eb14610339578063b6f9de9514610359578063baa2abde1461036c578063c45a01551461038c57600080fd5b80635b0d5984116101085780635b0d5984146102315780635c11d7951461025f578063715018a61461027f578063791ac947146102945780637ff36ab5146102b45780638803dbee146102c757600080fd5b806302751cec1461016a57806318cbafe5146101a45780632195995c146101d157806338ed1739146101f15780634a25d94a1461021157600080fd5b36610165576002546001600160a01b0316331461016357610163613a12565b005b600080fd5b34801561017657600080fd5b5061018a61018536600461342a565b610463565b604080519283526020830191909152015b60405180910390f35b3480156101b057600080fd5b506101c46101bf36600461362f565b610530565b60405161019b91906136ff565b3480156101dd57600080fd5b5061018a6101ec366004613304565b6107e6565b3480156101fd57600080fd5b506101c461020c36600461362f565b61089e565b34801561021d57600080fd5b506101c461022c36600461362f565b61099b565b34801561023d57600080fd5b5061025161024c366004613488565b610a9a565b60405190815260200161019b565b34801561026b57600080fd5b5061016361027a36600461362f565b610b55565b34801561028b57600080fd5b50610163610db4565b3480156102a057600080fd5b506101636102af36600461362f565b610e1a565b6101c46102c23660046135a4565b610ff8565b3480156102d357600080fd5b506101c46102e236600461362f565b611287565b3480156102f357600080fd5b506000546001600160a01b03165b6040516001600160a01b03909116815260200161019b565b34801561032557600080fd5b50600254610301906001600160a01b031681565b34801561034557600080fd5b5061025161035436600461342a565b611323565b6101636103673660046135a4565b611452565b34801561037857600080fd5b5061018a610387366004613292565b611734565b34801561039857600080fd5b50600154610301906001600160a01b031681565b3480156103b857600080fd5b5061018a6103c7366004613488565b6118f9565b3480156103d857600080fd5b506103ec6103e73660046133ae565b6119ba565b6040805193845260208401929092529082015260600161019b565b34801561041357600080fd5b5061025160001981565b34801561042957600080fd5b50610163610438366004613258565b611aa6565b6103ec61044b36600461342a565b611b71565b6101c461045e3660046135a4565b611d81565b60008082428110156104905760405162461bcd60e51b81526004016104879061380e565b60405180910390fd5b6002546104ac908a906001600160a01b03168a8a8a308a611734565b90935091506104bc898685612046565b600254604051632e1a7d4d60e01b8152600481018490526001600160a01b0390911690632e1a7d4d90602401600060405180830381600087803b15801561050257600080fd5b505af1158015610516573d6000803e3d6000fd5b505050506105248583612161565b50965096945050505050565b606081428110156105535760405162461bcd60e51b81526004016104879061380e565b6002546001600160a01b0316868661056c60018261399d565b81811061057b5761057b613a3e565b90506020020160208101906105909190613258565b6001600160a01b0316146105b65760405162461bcd60e51b8152600401610487906138bd565b6105f38887878080602002602001604051908101604052809392919081815260200183836020028082843760009201919091525061222f92505050565b9150868260018451610605919061399d565b8151811061061557610615613a3e565b6020026020010151101561063b5760405162461bcd60e51b8152600401610487906137c8565b6106df8686600081811061065157610651613a3e565b90506020020160208101906106669190613258565b336106bf8989600081811061067d5761067d613a3e565b90506020020160208101906106929190613258565b8a8a60018181106106a5576106a5613a3e565b90506020020160208101906106ba9190613258565b6123b4565b856000815181106106d2576106d2613a3e565b6020026020010151612498565b61071e828787808060200260200160405190810160405280939291908181526020018383602002808284376000920191909152503092506125c8915050565b60025482516001600160a01b0390911690632e1a7d4d9084906107439060019061399d565b8151811061075357610753613a3e565b60200260200101516040518263ffffffff1660e01b815260040161077991815260200190565b600060405180830381600087803b15801561079357600080fd5b505af11580156107a7573d6000803e3d6000fd5b505050506107db8483600185516107be919061399d565b815181106107ce576107ce613a3e565b6020026020010151612161565b509695505050505050565b60008060006107f58e8e6123b4565b9050600087610804578c610808565b6000195b60405163d505accf60e01b81529091506001600160a01b0383169063d505accf90610843903390309086908f908e908e908e906004016136be565b600060405180830381600087803b15801561085d57600080fd5b505af1158015610871573d6000803e3d6000fd5b505050506108848f8f8f8f8f8f8f611734565b809450819550505050509b509b9950505050505050505050565b606081428110156108c15760405162461bcd60e51b81526004016104879061380e565b6108fe8887878080602002602001604051908101604052809392919081815260200183836020028082843760009201919091525061222f92505050565b9150868260018451610910919061399d565b8151811061092057610920613a3e565b602002602001015110156109465760405162461bcd60e51b8152600401610487906137c8565b61095c8686600081811061065157610651613a3e565b6107db828787808060200260200160405190810160405280939291908181526020018383602002808284376000920191909152508992506125c8915050565b606081428110156109be5760405162461bcd60e51b81526004016104879061380e565b6002546001600160a01b031686866109d760018261399d565b8181106109e6576109e6613a3e565b90506020020160208101906109fb9190613258565b6001600160a01b031614610a215760405162461bcd60e51b8152600401610487906138bd565b610a5e8887878080602002602001604051908101604052809392919081815260200183836020028082843760009201919091525061278e92505050565b91508682600081518110610a7457610a74613a3e565b6020026020010151111561063b5760405162461bcd60e51b815260040161048790613743565b6002546000908190610ab6908d906001600160a01b03166123b4565b9050600086610ac5578b610ac9565b6000195b60405163d505accf60e01b81529091506001600160a01b0383169063d505accf90610b04903390309086908e908d908d908d906004016136be565b600060405180830381600087803b158015610b1e57600080fd5b505af1158015610b32573d6000803e3d6000fd5b50505050610b448d8d8d8d8d8d611323565b9d9c50505050505050505050505050565b8042811015610b765760405162461bcd60e51b81526004016104879061380e565b610be685856000818110610b8c57610b8c613a3e565b9050602002016020810190610ba19190613258565b33610be088886000818110610bb857610bb8613a3e565b9050602002016020810190610bcd9190613258565b898960018181106106a5576106a5613a3e565b8a612498565b60008585610bf560018261399d565b818110610c0457610c04613a3e565b9050602002016020810190610c199190613258565b6040516370a0823160e01b81526001600160a01b03868116600483015291909116906370a082319060240160206040518083038186803b158015610c5c57600080fd5b505afa158015610c70573d6000803e3d6000fd5b505050506040513d601f19601f82011682018060405250810190610c94919061358b565b9050610cd486868080602002602001604051908101604052809392919081815260200183836020028082843760009201919091525088925061290a915050565b86610d8c828888610ce660018261399d565b818110610cf557610cf5613a3e565b9050602002016020810190610d0a9190613258565b6040516370a0823160e01b81526001600160a01b03898116600483015291909116906370a08231906024015b60206040518083038186803b158015610d4e57600080fd5b505afa158015610d62573d6000803e3d6000fd5b505050506040513d601f19601f82011682018060405250810190610d86919061358b565b90612b70565b1015610daa5760405162461bcd60e51b8152600401610487906137c8565b5050505050505050565b6000546001600160a01b03163314610e0e5760405162461bcd60e51b815260206004820181905260248201527f4f776e61626c653a2063616c6c6572206973206e6f7420746865206f776e65726044820152606401610487565b610e186000612b83565b565b8042811015610e3b5760405162461bcd60e51b81526004016104879061380e565b6002546001600160a01b03168585610e5460018261399d565b818110610e6357610e63613a3e565b9050602002016020810190610e789190613258565b6001600160a01b031614610e9e5760405162461bcd60e51b8152600401610487906138bd565b610eb485856000818110610b8c57610b8c613a3e565b610ef285858080602002602001604051908101604052809392919081815260200183836020028082843760009201919091525030925061290a915050565b6002546040516370a0823160e01b81523060048201526000916001600160a01b0316906370a082319060240160206040518083038186803b158015610f3657600080fd5b505afa158015610f4a573d6000803e3d6000fd5b505050506040513d601f19601f82011682018060405250810190610f6e919061358b565b905086811015610f905760405162461bcd60e51b8152600401610487906137c8565b600254604051632e1a7d4d60e01b8152600481018390526001600160a01b0390911690632e1a7d4d90602401600060405180830381600087803b158015610fd657600080fd5b505af1158015610fea573d6000803e3d6000fd5b50505050610daa8482612161565b6060814281101561101b5760405162461bcd60e51b81526004016104879061380e565b6002546001600160a01b0316868660008161103857611038613a3e565b905060200201602081019061104d9190613258565b6001600160a01b0316146110735760405162461bcd60e51b8152600401610487906138bd565b6110b03487878080602002602001604051908101604052809392919081815260200183836020028082843760009201919091525061222f92505050565b91508682600184516110c2919061399d565b815181106110d2576110d2613a3e565b602002602001015110156110f85760405162461bcd60e51b8152600401610487906137c8565b60025482516001600160a01b039091169063d0e30db090849060009061112057611120613a3e565b60200260200101516040518263ffffffff1660e01b81526004016000604051808303818588803b15801561115357600080fd5b505af1158015611167573d6000803e3d6000fd5b50506002546001600160a01b0316925063a9059cbb915061119490508888600081610bb857610bb8613a3e565b846000815181106111a7576111a7613a3e565b60200260200101516040518363ffffffff1660e01b81526004016111e09291906001600160a01b03929092168252602082015260400190565b602060405180830381600087803b1580156111fa57600080fd5b505af115801561120e573d6000803e3d6000fd5b505050506040513d601f19601f82011682018060405250810190611232919061351e565b61123e5761123e613a12565b61127d828787808060200260200160405190810160405280939291908181526020018383602002808284376000920191909152508992506125c8915050565b5095945050505050565b606081428110156112aa5760405162461bcd60e51b81526004016104879061380e565b6112e78887878080602002602001604051908101604052809392919081815260200183836020028082843760009201919091525061278e92505050565b915086826000815181106112fd576112fd613a3e565b602002602001015111156109465760405162461bcd60e51b815260040161048790613743565b600081428110156113465760405162461bcd60e51b81526004016104879061380e565b6002546113629089906001600160a01b03168989893089611734565b6040516370a0823160e01b81523060048201529093506113ea9150899086906001600160a01b038316906370a082319060240160206040518083038186803b1580156113ad57600080fd5b505afa1580156113c1573d6000803e3d6000fd5b505050506040513d601f19601f820116820180604052508101906113e5919061358b565b612046565b600254604051632e1a7d4d60e01b8152600481018490526001600160a01b0390911690632e1a7d4d90602401600060405180830381600087803b15801561143057600080fd5b505af1158015611444573d6000803e3d6000fd5b505050506107db8483612161565b80428110156114735760405162461bcd60e51b81526004016104879061380e565b6002546001600160a01b0316858560008161149057611490613a3e565b90506020020160208101906114a59190613258565b6001600160a01b0316146114cb5760405162461bcd60e51b8152600401610487906138bd565b60025460408051630d0e30db60e41b8152905134926001600160a01b03169163d0e30db091849160048082019260009290919082900301818588803b15801561151357600080fd5b505af1158015611527573d6000803e3d6000fd5b50506002546001600160a01b0316925063a9059cbb915061155490508888600081610bb857610bb8613a3e565b6040516001600160e01b031960e084901b1681526001600160a01b03909116600482015260248101849052604401602060405180830381600087803b15801561159c57600080fd5b505af11580156115b0573d6000803e3d6000fd5b505050506040513d601f19601f820116820180604052508101906115d4919061351e565b6115e0576115e0613a12565b600086866115ef60018261399d565b8181106115fe576115fe613a3e565b90506020020160208101906116139190613258565b6040516370a0823160e01b81526001600160a01b03878116600483015291909116906370a082319060240160206040518083038186803b15801561165657600080fd5b505afa15801561166a573d6000803e3d6000fd5b505050506040513d601f19601f8201168201806040525081019061168e919061358b565b90506116ce87878080602002602001604051908101604052809392919081815260200183836020028082843760009201919091525089925061290a915050565b87610d8c8289896116e060018261399d565b8181106116ef576116ef613a3e565b90506020020160208101906117049190613258565b6040516370a0823160e01b81526001600160a01b038a8116600483015291909116906370a0823190602401610d36565b60008082428110156117585760405162461bcd60e51b81526004016104879061380e565b60006117648b8b6123b4565b6040516323b872dd60e01b81523360048201526001600160a01b03821660248201819052604482018c90529192506323b872dd90606401602060405180830381600087803b1580156117b557600080fd5b505af11580156117c9573d6000803e3d6000fd5b505050506040513d601f19601f820116820180604052508101906117ed919061351e565b5060405163226bf2d160e21b81526001600160a01b03878116600483015260009182918416906389afcb44906024016040805180830381600087803b15801561183557600080fd5b505af1158015611849573d6000803e3d6000fd5b505050506040513d601f19601f8201168201806040525081019061186d919061360b565b91509150600061187d8e8e612bd3565b509050806001600160a01b03168e6001600160a01b0316146118a05781836118a3565b82825b90975095508a8710156118c85760405162461bcd60e51b81526004016104879061383b565b898610156118e85760405162461bcd60e51b81526004016104879061387c565b505050505097509795505050505050565b60025460009081908190611917908e906001600160a01b03166123b4565b9050600087611926578c61192a565b6000195b60405163d505accf60e01b81529091506001600160a01b0383169063d505accf90611965903390309086908f908e908e908e906004016136be565b600060405180830381600087803b15801561197f57600080fd5b505af1158015611993573d6000803e3d6000fd5b505050506119a58e8e8e8e8e8e610463565b909f909e509c50505050505050505050505050565b600080600083428110156119e05760405162461bcd60e51b81526004016104879061380e565b6119ee8c8c8c8c8c8c612cbd565b909450925060006119ff8d8d6123b4565b9050611a0d8d338388612498565b611a198c338387612498565b6040516335313c2160e11b81526001600160a01b038881166004830152821690636a62784290602401602060405180830381600087803b158015611a5c57600080fd5b505af1158015611a70573d6000803e3d6000fd5b505050506040513d601f19601f82011682018060405250810190611a94919061358b565b92505050985098509895505050505050565b6000546001600160a01b03163314611b005760405162461bcd60e51b815260206004820181905260248201527f4f776e61626c653a2063616c6c6572206973206e6f7420746865206f776e65726044820152606401610487565b6001600160a01b038116611b655760405162461bcd60e51b815260206004820152602660248201527f4f776e61626c653a206e6577206f776e657220697320746865207a65726f206160448201526564647265737360d01b6064820152608401610487565b611b6e81612b83565b50565b60008060008342811015611b975760405162461bcd60e51b81526004016104879061380e565b600254611bb2908b906001600160a01b03168b348c8c612cbd565b6002549195509350600090611bd1908c906001600160a01b03166123b4565b9050611bdf8b338388612498565b600260009054906101000a90046001600160a01b03166001600160a01b031663d0e30db0856040518263ffffffff1660e01b81526004016000604051808303818588803b158015611c2f57600080fd5b505af1158015611c43573d6000803e3d6000fd5b505060025460405163a9059cbb60e01b81526001600160a01b038681166004830152602482018a9052909116935063a9059cbb92506044019050602060405180830381600087803b158015611c9757600080fd5b505af1158015611cab573d6000803e3d6000fd5b505050506040513d601f19601f82011682018060405250810190611ccf919061351e565b611cdb57611cdb613a12565b6040516335313c2160e11b81526001600160a01b038881166004830152821690636a62784290602401602060405180830381600087803b158015611d1e57600080fd5b505af1158015611d32573d6000803e3d6000fd5b505050506040513d601f19601f82011682018060405250810190611d56919061358b565b925083341115611d7357611d7333611d6e863461399d565b612161565b505096509650969350505050565b60608142811015611da45760405162461bcd60e51b81526004016104879061380e565b6002546001600160a01b03168686600081611dc157611dc1613a3e565b9050602002016020810190611dd69190613258565b6001600160a01b031614611dfc5760405162461bcd60e51b8152600401610487906138bd565b611e398787878080602002602001604051908101604052809392919081815260200183836020028082843760009201919091525061278e92505050565b91503482600081518110611e4f57611e4f613a3e565b60200260200101511115611e755760405162461bcd60e51b815260040161048790613743565b60025482516001600160a01b039091169063d0e30db0908490600090611e9d57611e9d613a3e565b60200260200101516040518263ffffffff1660e01b81526004016000604051808303818588803b158015611ed057600080fd5b505af1158015611ee4573d6000803e3d6000fd5b50506002546001600160a01b0316925063a9059cbb9150611f1190508888600081610bb857610bb8613a3e565b84600081518110611f2457611f24613a3e565b60200260200101516040518363ffffffff1660e01b8152600401611f5d9291906001600160a01b03929092168252602082015260400190565b602060405180830381600087803b158015611f7757600080fd5b505af1158015611f8b573d6000803e3d6000fd5b505050506040513d601f19601f82011682018060405250810190611faf919061351e565b611fbb57611fbb613a12565b611ffa828787808060200260200160405190810160405280939291908181526020018383602002808284376000920191909152508992506125c8915050565b8160008151811061200d5761200d613a3e565b602002602001015134111561127d5761127d338360008151811061203357612033613a3e565b602002602001015134611d6e919061399d565b604080516001600160a01b038481166024830152604480830185905283518084039091018152606490920183526020820180516001600160e01b031663a9059cbb60e01b17905291516000928392908716916120a291906136a2565b6000604051808303816000865af19150503d80600081146120df576040519150601f19603f3d011682016040523d82523d6000602084013e6120e4565b606091505b509150915081801561210e57508051158061210e57508080602001905181019061210e919061351e565b61215a5760405162461bcd60e51b815260206004820152601f60248201527f5472616e7366657248656c7065723a205452414e534645525f4641494c4544006044820152606401610487565b5050505050565b604080516000808252602082019092526001600160a01b03841690839060405161218b91906136a2565b60006040518083038185875af1925050503d80600081146121c8576040519150601f19603f3d011682016040523d82523d6000602084013e6121cd565b606091505b505090508061222a5760405162461bcd60e51b815260206004820152602360248201527f5472616e7366657248656c7065723a204554485f5452414e534645525f46414960448201526213115160ea1b6064820152608401610487565b505050565b606060028251101561227f5760405162461bcd60e51b8152602060048201526019602482015278090c2e6d098d2c4e4c2e4f27440929cac82989288bea082a89603b1b6044820152606401610487565b815167ffffffffffffffff81111561229957612299613a54565b6040519080825280602002602001820160405280156122c2578160200160208202803683370190505b50905082816000815181106122d9576122d9613a3e565b60200260200101818152505060005b600183516122f6919061399d565b8110156123ad5760008061234885848151811061231557612315613a3e565b60200260200101518685600161232b9190613944565b8151811061233b5761233b613a3e565b6020026020010151612ea5565b9150915061237084848151811061236157612361613a3e565b60200260200101518383612f87565b8461237c856001613944565b8151811061238c5761238c613a3e565b602002602001018181525050505080806123a5906139f7565b9150506122e8565b5092915050565b60008060006123c38585612bd3565b6001546040516bffffffffffffffffffffffff19606085811b8216602084015284901b1660348201529294509092506001600160a01b031690604801604051602081830303815290604052805190602001206040516020016124779291906001600160f81b0319815260609290921b6bffffffffffffffffffffffff1916600183015260158201527fe6c9b5778aa578689587c301fc4d20f8363cd4a6b1e4577f2214ebf5578b4bfa603582015260550190565b60408051601f19818403018152919052805160209091012095945050505050565b604080516001600160a01b0385811660248301528481166044830152606480830185905283518084039091018152608490920183526020820180516001600160e01b03166323b872dd60e01b17905291516000928392908816916124fc91906136a2565b6000604051808303816000865af19150503d8060008114612539576040519150601f19603f3d011682016040523d82523d6000602084013e61253e565b606091505b5091509150818015612568575080511580612568575080806020019051810190612568919061351e565b6125c05760405162461bcd60e51b8152602060048201526024808201527f5472616e7366657248656c7065723a205452414e534645525f46524f4d5f46416044820152631253115160e21b6064820152608401610487565b505050505050565b60005b600183516125d9919061399d565b811015612788576000808483815181106125f5576125f5613a3e565b60200260200101518584600161260b9190613944565b8151811061261b5761261b613a3e565b60200260200101519150915060006126338383612bd3565b509050600087612644866001613944565b8151811061265457612654613a3e565b60200260200101519050600080836001600160a01b0316866001600160a01b03161461268257826000612686565b6000835b91509150600060028a5161269a919061399d565b88106126a657886126d3565b6126d3868b6126b68b6002613944565b815181106126c6576126c6613a3e565b60200260200101516123b4565b90506126df87876123b4565b6001600160a01b031663022c0d9f84848460006040519080825280601f01601f19166020018201604052801561271c576020820181803683370190505b506040518563ffffffff1660e01b815260040161273c94939291906138f4565b600060405180830381600087803b15801561275657600080fd5b505af115801561276a573d6000803e3d6000fd5b50505050505050505050508080612780906139f7565b9150506125cb565b50505050565b60606002825110156127de5760405162461bcd60e51b8152602060048201526019602482015278090c2e6d098d2c4e4c2e4f27440929cac82989288bea082a89603b1b6044820152606401610487565b815167ffffffffffffffff8111156127f8576127f8613a54565b604051908082528060200260200182016040528015612821578160200160208202803683370190505b509050828160018351612834919061399d565b8151811061284457612844613a3e565b602002602001018181525050600060018351612860919061399d565b90505b80156123ad576000806128a58561287b60018661399d565b8151811061288b5761288b613a3e565b602002602001015186858151811061233b5761233b613a3e565b915091506128cd8484815181106128be576128be613a3e565b60200260200101518383613060565b846128d960018661399d565b815181106128e9576128e9613a3e565b60200260200101818152505050508080612902906139e0565b915050612863565b60005b6001835161291b919061399d565b81101561222a5760008084838151811061293757612937613a3e565b60200260200101518584600161294d9190613944565b8151811061295d5761295d613a3e565b60200260200101519150915060006129758383612bd3565b509050600061298484846123b4565b9050600080600080846001600160a01b0316630902f1ac6040518163ffffffff1660e01b815260040160606040518083038186803b1580156129c557600080fd5b505afa1580156129d9573d6000803e3d6000fd5b505050506040513d601f19601f820116820180604052508101906129fd919061353b565b506001600160701b031691506001600160701b03169150600080876001600160a01b03168a6001600160a01b031614612a37578284612a3a565b83835b6040516370a0823160e01b81526001600160a01b038a81166004830152929450909250612a75918491908d16906370a0823190602401610d36565b9550612a82868383612f87565b945050505050600080856001600160a01b0316886001600160a01b031614612aac57826000612ab0565b6000835b91509150600060028c51612ac4919061399d565b8a10612ad0578a612ae0565b612ae0888d6126b68d6002613944565b6040805160008152602081019182905263022c0d9f60e01b9091529091506001600160a01b0387169063022c0d9f90612b2290869086908690602481016138f4565b600060405180830381600087803b158015612b3c57600080fd5b505af1158015612b50573d6000803e3d6000fd5b505050505050505050505050508080612b68906139f7565b91505061290d565b6000612b7c828461399d565b9392505050565b600080546001600160a01b038381166001600160a01b0319831681178455604051919092169283917f8be0079c531659141344cd1fd0a4f28419497f9722a3daafe3b4186f6b6457e09190a35050565b600080826001600160a01b0316846001600160a01b03161415612c385760405162461bcd60e51b815260206004820181905260248201527f486173684c6962726172793a204944454e544943414c5f4144445245535345536044820152606401610487565b826001600160a01b0316846001600160a01b031610612c58578284612c5b565b83835b90925090506001600160a01b038216612cb65760405162461bcd60e51b815260206004820152601960248201527f486173684c6962726172793a205a45524f5f41444452455353000000000000006044820152606401610487565b9250929050565b60015460405163e6a4390560e01b81526001600160a01b0388811660048301528781166024830152600092839283929091169063e6a439059060440160206040518083038186803b158015612d1157600080fd5b505afa158015612d25573d6000803e3d6000fd5b505050506040513d601f19601f82011682018060405250810190612d499190613275565b6001600160a01b03161415612de1576001546040516364e329cb60e11b81526001600160a01b038a8116600483015289811660248301529091169063c9c6539690604401602060405180830381600087803b158015612da757600080fd5b505af1158015612dbb573d6000803e3d6000fd5b505050506040513d601f19601f82011682018060405250810190612ddf9190613275565b505b600080612dee8a8a612ea5565b91509150816000148015612e00575080155b15612e1057879350869250612e98565b6000612e1d898484613134565b9050878111612e515785811015612e465760405162461bcd60e51b81526004016104879061387c565b889450925082612e96565b6000612e5e898486613134565b905089811115612e7057612e70613a12565b87811015612e905760405162461bcd60e51b81526004016104879061383b565b94508793505b505b5050965096945050505050565b6000806000612eb48585612bd3565b509050612ec185856123b4565b50600080612ecf87876123b4565b6001600160a01b0316630902f1ac6040518163ffffffff1660e01b815260040160606040518083038186803b158015612f0757600080fd5b505afa158015612f1b573d6000803e3d6000fd5b505050506040513d601f19601f82011682018060405250810190612f3f919061353b565b506001600160701b031691506001600160701b03169150826001600160a01b0316876001600160a01b031614612f76578082612f79565b81815b909890975095505050505050565b6000808411612fe75760405162461bcd60e51b815260206004820152602660248201527f486173684c6962726172793a20494e53554646494349454e545f494e5055545f604482015265105353d5539560d21b6064820152608401610487565b600083118015612ff75750600082115b6130135760405162461bcd60e51b815260040161048790613785565b6000613021856126f76131ce565b9050600061302f82856131ce565b9050600061304983613043886127106131ce565b906131da565b9050613055818361395c565b979650505050505050565b60008084116130c15760405162461bcd60e51b815260206004820152602760248201527f486173684c6962726172793a20494e53554646494349454e545f4f555450555460448201526617d05353d5539560ca1b6064820152608401610487565b6000831180156130d15750600082115b6130ed5760405162461bcd60e51b815260040161048790613785565b60006131056127106130ff86886131ce565b906131ce565b905060006131196126f76130ff8689612b70565b905061312a6001613043838561395c565b9695505050505050565b60008084116131855760405162461bcd60e51b815260206004820181905260248201527f486173684c6962726172793a20494e53554646494349454e545f414d4f554e546044820152606401610487565b6000831180156131955750600082115b6131b15760405162461bcd60e51b815260040161048790613785565b826131bc85846131ce565b6131c6919061395c565b949350505050565b6000612b7c828461397e565b6000612b7c8284613944565b60008083601f8401126131f857600080fd5b50813567ffffffffffffffff81111561321057600080fd5b6020830191508360208260051b8501011115612cb657600080fd5b80516001600160701b038116811461324257600080fd5b919050565b803560ff8116811461324257600080fd5b60006020828403121561326a57600080fd5b8135612b7c81613a6a565b60006020828403121561328757600080fd5b8151612b7c81613a6a565b600080600080600080600060e0888a0312156132ad57600080fd5b87356132b881613a6a565b965060208801356132c881613a6a565b955060408801359450606088013593506080880135925060a08801356132ed81613a6a565b8092505060c0880135905092959891949750929550565b60008060008060008060008060008060006101608c8e03121561332657600080fd5b8b3561333181613a6a565b9a5060208c013561334181613a6a565b995060408c0135985060608c0135975060808c0135965060a08c013561336681613a6a565b955060c08c0135945060e08c013561337d81613a7f565b935061338c6101008d01613247565b92506101208c013591506101408c013590509295989b509295989b9093969950565b600080600080600080600080610100898b0312156133cb57600080fd5b88356133d681613a6a565b975060208901356133e681613a6a565b965060408901359550606089013594506080890135935060a0890135925060c089013561341281613a6a565b8092505060e089013590509295985092959890939650565b60008060008060008060c0878903121561344357600080fd5b863561344e81613a6a565b9550602087013594506040870135935060608701359250608087013561347381613a6a565b8092505060a087013590509295509295509295565b6000806000806000806000806000806101408b8d0312156134a857600080fd5b8a356134b381613a6a565b995060208b0135985060408b0135975060608b0135965060808b01356134d881613a6a565b955060a08b0135945060c08b01356134ef81613a7f565b93506134fd60e08c01613247565b92506101008b013591506101208b013590509295989b9194979a5092959850565b60006020828403121561353057600080fd5b8151612b7c81613a7f565b60008060006060848603121561355057600080fd5b6135598461322b565b92506135676020850161322b565b9150604084015163ffffffff8116811461358057600080fd5b809150509250925092565b60006020828403121561359d57600080fd5b5051919050565b6000806000806000608086880312156135bc57600080fd5b85359450602086013567ffffffffffffffff8111156135da57600080fd5b6135e6888289016131e6565b90955093505060408601356135fa81613a6a565b949793965091946060013592915050565b6000806040838503121561361e57600080fd5b505080516020909101519092909150565b60008060008060008060a0878903121561364857600080fd5b8635955060208701359450604087013567ffffffffffffffff81111561366d57600080fd5b61367989828a016131e6565b909550935050606087013561368d81613a6a565b80925050608087013590509295509295509295565b600082516136b48184602087016139b4565b9190910192915050565b6001600160a01b0397881681529590961660208601526040850193909352606084019190915260ff16608083015260a082015260c081019190915260e00190565b6020808252825182820181905260009190848201906040850190845b818110156137375783518352928401929184019160010161371b565b50909695505050505050565b60208082526022908201527f48617368526f757465723a204558434553534956455f494e5055545f414d4f55604082015261139560f21b606082015260800190565b60208082526023908201527f486173684c6962726172793a20494e53554646494349454e545f4c495155494460408201526249545960e81b606082015260800190565b60208082526026908201527f48617368526f757465723a20494e53554646494349454e545f4f55545055545f604082015265105353d5539560d21b606082015260800190565b60208082526013908201527212185cda149bdd5d195c8e8811561412549151606a1b604082015260600190565b60208082526021908201527f48617368526f757465723a20494e53554646494349454e545f415f414d4f554e6040820152601560fa1b606082015260800190565b60208082526021908201527f48617368526f757465723a20494e53554646494349454e545f425f414d4f554e6040820152601560fa1b606082015260800190565b60208082526018908201527f48617368526f757465723a20494e56414c49445f504154480000000000000000604082015260600190565b84815283602082015260018060a01b0383166040820152608060608201526000825180608084015261392d8160a08501602087016139b4565b601f01601f19169190910160a00195945050505050565b6000821982111561395757613957613a28565b500190565b60008261397957634e487b7160e01b600052601260045260246000fd5b500490565b600081600019048311821515161561399857613998613a28565b500290565b6000828210156139af576139af613a28565b500390565b60005b838110156139cf5781810151838201526020016139b7565b838111156127885750506000910152565b6000816139ef576139ef613a28565b506000190190565b6000600019821415613a0b57613a0b613a28565b5060010190565b634e487b7160e01b600052600160045260246000fd5b634e487b7160e01b600052601160045260246000fd5b634e487b7160e01b600052603260045260246000fd5b634e487b7160e01b600052604160045260246000fd5b6001600160a01b0381168114611b6e57600080fd5b8015158114611b6e57600080fdfea264697066735822122052c3f3b095dfb98083783a466c999ee3f1226af8fd29685f37490235a5742b1f64736f6c63430008060033",
  "immutableReferences": {},
  "source": "// SPDX-License-Identifier: MIT\npragma solidity ^0.8.0;\n\nimport './libraries/TransferHelper.sol';\nimport './interfaces/IHashFactory.sol';\nimport './interfaces/IHashPair.sol';\nimport './interfaces/IERC20.sol';\nimport './interfaces/IHashRouter02.sol';\nimport './interfaces/IWETH.sol';\nimport './libraries/SafeMath.sol';\nimport './libraries/Ownable.sol';\n\ncontract HashRouter is IHashRouter02, Ownable {\n    using SafeMath for uint256;\n\n    address public override factory;\n    address public override WETH;\n    uint256 public constant MASK = type(uint256).max;\n\n    modifier ensure(uint256 deadline) {\n        require(deadline >= block.timestamp, 'HashRouter: EXPIRED');\n        _;\n    }\n\n    constructor(address _factory, address _WETH) {\n        factory = _factory;\n        WETH = _WETH;\n    }\n\n    receive() external payable {\n        assert(msg.sender == WETH); // only accept ETH via fallback from the WETH contract\n    }\n\n    // returns sorted token addresses, used to handle return values from pairs sorted in this order\n    function sortTokens(address tokenA, address tokenB) internal pure returns (address token0, address token1) {\n        require(tokenA != tokenB, 'HashLibrary: IDENTICAL_ADDRESSES');\n        (token0, token1) = tokenA < tokenB ? (tokenA, tokenB) : (tokenB, tokenA);\n        require(token0 != address(0), 'HashLibrary: ZERO_ADDRESS');\n    }\n\n    // calculates the CREATE2 address for a pair without making any external calls\n    function pairFor(address tokenA, address tokenB) internal view returns (address pair) {\n        (address token0, address token1) = sortTokens(tokenA, tokenB);\n        pair = address(\n            uint160(\n                uint(\n                    keccak256(\n                        abi.encodePacked(\n                            hex'ff',\n                            factory,\n                            keccak256(abi.encodePacked(token0, token1)),\n                            hex'e6c9b5778aa578689587c301fc4d20f8363cd4a6b1e4577f2214ebf5578b4bfa'\n                            // hex'factory init_code_hash'\n                        )\n                    )\n                )\n            )\n        );\n    }\n\n    // fetches and sorts the reserves for a pair\n    function getReserves(address tokenA, address tokenB) internal view returns (uint256 reserveA, uint256 reserveB) {\n        (address token0, ) = sortTokens(tokenA, tokenB);\n        pairFor(tokenA, tokenB);\n        (uint256 reserve0, uint256 reserve1, ) = IHashPair(pairFor(tokenA, tokenB)).getReserves();\n        (reserveA, reserveB) = tokenA == token0 ? (reserve0, reserve1) : (reserve1, reserve0);\n    }\n\n    // given some amount of an asset and pair reserves, returns an equivalent amount of the other asset\n    function quote(\n        uint256 amountA,\n        uint256 reserveA,\n        uint256 reserveB\n    ) internal pure returns (uint256 amountB) {\n        require(amountA > 0, 'HashLibrary: INSUFFICIENT_AMOUNT');\n        require(reserveA > 0 && reserveB > 0, 'HashLibrary: INSUFFICIENT_LIQUIDITY');\n        amountB = amountA.mul(reserveB) / reserveA;\n    }\n\n    // given an input amount of an asset and pair reserves, returns the maximum output amount of the other asset\n    function getAmountOut(\n        uint256 amountIn,\n        uint256 reserveIn,\n        uint256 reserveOut\n    ) internal pure returns (uint256 amountOut) {\n        require(amountIn > 0, 'HashLibrary: INSUFFICIENT_INPUT_AMOUNT');\n        require(reserveIn > 0 && reserveOut > 0, 'HashLibrary: INSUFFICIENT_LIQUIDITY');\n        uint256 amountInWithFee = amountIn.mul(9975);\n        uint256 numerator = amountInWithFee.mul(reserveOut);\n        uint256 denominator = reserveIn.mul(10000).add(amountInWithFee);\n        amountOut = numerator / denominator;\n    }\n\n    // given an output amount of an asset and pair reserves, returns a required input amount of the other asset\n    function getAmountIn(\n        uint256 amountOut,\n        uint256 reserveIn,\n        uint256 reserveOut\n    ) internal pure returns (uint256 amountIn) {\n        require(amountOut > 0, 'HashLibrary: INSUFFICIENT_OUTPUT_AMOUNT');\n        require(reserveIn > 0 && reserveOut > 0, 'HashLibrary: INSUFFICIENT_LIQUIDITY');\n        uint256 numerator = reserveIn.mul(amountOut).mul(10000);\n        uint256 denominator = reserveOut.sub(amountOut).mul(9975);\n        amountIn = (numerator / denominator).add(1);\n    }\n\n    // performs chained getAmountOut calculations on any number of pairs\n    function getAmountsOut(uint256 amountIn, address[] memory path) internal view returns (uint256[] memory amounts) {\n        require(path.length >= 2, 'HashLibrary: INVALID_PATH');\n        amounts = new uint256[](path.length);\n        amounts[0] = amountIn;\n        for (uint256 i; i < path.length - 1; i++) {\n            (uint256 reserveIn, uint256 reserveOut) = getReserves(path[i], path[i + 1]);\n            amounts[i + 1] = getAmountOut(amounts[i], reserveIn, reserveOut);\n        }\n    }\n\n    // performs chained getAmountIn calculations on any number of pairs\n    function getAmountsIn(uint256 amountOut, address[] memory path) internal view returns (uint256[] memory amounts) {\n        require(path.length >= 2, 'HashLibrary: INVALID_PATH');\n        amounts = new uint256[](path.length);\n        amounts[amounts.length - 1] = amountOut;\n        for (uint256 i = path.length - 1; i > 0; i--) {\n            (uint256 reserveIn, uint256 reserveOut) = getReserves(path[i - 1], path[i]);\n            amounts[i - 1] = getAmountIn(amounts[i], reserveIn, reserveOut);\n        }\n    }\n\n    // **** ADD LIQUIDITY ****\n    function _addLiquidity(\n        address tokenA,\n        address tokenB,\n        uint256 amountADesired,\n        uint256 amountBDesired,\n        uint256 amountAMin,\n        uint256 amountBMin\n    ) internal virtual returns (uint256 amountA, uint256 amountB) {\n        // create the pair if it doesn't exist yet\n        if (IHashFactory(factory).getPair(tokenA, tokenB) == address(0)) {\n            IHashFactory(factory).createPair(tokenA, tokenB);\n        }\n        (uint256 reserveA, uint256 reserveB) = getReserves(tokenA, tokenB);\n        if (reserveA == 0 && reserveB == 0) {\n            (amountA, amountB) = (amountADesired, amountBDesired);\n        } else {\n            uint256 amountBOptimal = quote(amountADesired, reserveA, reserveB);\n            if (amountBOptimal <= amountBDesired) {\n                require(amountBOptimal >= amountBMin, 'HashRouter: INSUFFICIENT_B_AMOUNT');\n                (amountA, amountB) = (amountADesired, amountBOptimal);\n            } else {\n                uint256 amountAOptimal = quote(amountBDesired, reserveB, reserveA);\n                assert(amountAOptimal <= amountADesired);\n                require(amountAOptimal >= amountAMin, 'HashRouter: INSUFFICIENT_A_AMOUNT');\n                (amountA, amountB) = (amountAOptimal, amountBDesired);\n            }\n        }\n    }\n\n    function addLiquidity(\n        address tokenA,\n        address tokenB,\n        uint256 amountADesired,\n        uint256 amountBDesired,\n        uint256 amountAMin,\n        uint256 amountBMin,\n        address to,\n        uint256 deadline\n    )\n        external\n        virtual\n        override\n        ensure(deadline)\n        returns (\n            uint256 amountA,\n            uint256 amountB,\n            uint256 liquidity\n        )\n    {\n        (amountA, amountB) = _addLiquidity(tokenA, tokenB, amountADesired, amountBDesired, amountAMin, amountBMin);\n        address pair = pairFor(tokenA, tokenB);\n        TransferHelper.safeTransferFrom(tokenA, msg.sender, pair, amountA);\n        TransferHelper.safeTransferFrom(tokenB, msg.sender, pair, amountB);\n        liquidity = IHashPair(pair).mint(to);\n    }\n\n    function addLiquidityETH(\n        address token,\n        uint256 amountTokenDesired,\n        uint256 amountTokenMin,\n        uint256 amountETHMin,\n        address to,\n        uint256 deadline\n    )\n        external\n        payable\n        virtual\n        override\n        ensure(deadline)\n        returns (\n            uint256 amountToken,\n            uint256 amountETH,\n            uint256 liquidity\n        )\n    {\n        (amountToken, amountETH) = _addLiquidity(\n            token,\n            WETH,\n            amountTokenDesired,\n            msg.value,\n            amountTokenMin,\n            amountETHMin\n        );\n        address pair = pairFor(token, WETH);\n        TransferHelper.safeTransferFrom(token, msg.sender, pair, amountToken);\n        IWETH(WETH).deposit{value: amountETH}();\n        assert(IWETH(WETH).transfer(pair, amountETH));\n        liquidity = IHashPair(pair).mint(to);\n        // refund dust eth, if any\n        if (msg.value > amountETH) TransferHelper.safeTransferETH(msg.sender, msg.value - amountETH);\n    }\n\n    // **** REMOVE LIQUIDITY ****\n    function removeLiquidity(\n        address tokenA,\n        address tokenB,\n        uint256 liquidity,\n        uint256 amountAMin,\n        uint256 amountBMin,\n        address to,\n        uint256 deadline\n    ) public virtual override ensure(deadline) returns (uint256 amountA, uint256 amountB) {\n        address pair = pairFor(tokenA, tokenB);\n        IHashPair(pair).transferFrom(msg.sender, pair, liquidity); // send liquidity to pair\n        (uint256 amount0, uint256 amount1) = IHashPair(pair).burn(to);\n        (address token0, ) = sortTokens(tokenA, tokenB);\n        (amountA, amountB) = tokenA == token0 ? (amount0, amount1) : (amount1, amount0);\n        require(amountA >= amountAMin, 'HashRouter: INSUFFICIENT_A_AMOUNT');\n        require(amountB >= amountBMin, 'HashRouter: INSUFFICIENT_B_AMOUNT');\n    }\n\n    function removeLiquidityETH(\n        address token,\n        uint256 liquidity,\n        uint256 amountTokenMin,\n        uint256 amountETHMin,\n        address to,\n        uint256 deadline\n    ) public virtual override ensure(deadline) returns (uint256 amountToken, uint256 amountETH) {\n        (amountToken, amountETH) = removeLiquidity(\n            token,\n            WETH,\n            liquidity,\n            amountTokenMin,\n            amountETHMin,\n            address(this),\n            deadline\n        );\n        TransferHelper.safeTransfer(token, to, amountToken);\n        IWETH(WETH).withdraw(amountETH);\n        TransferHelper.safeTransferETH(to, amountETH);\n    }\n\n    function removeLiquidityWithPermit(\n        address tokenA,\n        address tokenB,\n        uint256 liquidity,\n        uint256 amountAMin,\n        uint256 amountBMin,\n        address to,\n        uint256 deadline,\n        bool approveMax,\n        uint8 v,\n        bytes32 r,\n        bytes32 s\n    ) external virtual override returns (uint256 amountA, uint256 amountB) {\n        address pair = pairFor(tokenA, tokenB);\n        uint256 value = approveMax ? MASK : liquidity;\n        IHashPair(pair).permit(msg.sender, address(this), value, deadline, v, r, s);\n        (amountA, amountB) = removeLiquidity(tokenA, tokenB, liquidity, amountAMin, amountBMin, to, deadline);\n    }\n\n    function removeLiquidityETHWithPermit(\n        address token,\n        uint256 liquidity,\n        uint256 amountTokenMin,\n        uint256 amountETHMin,\n        address to,\n        uint256 deadline,\n        bool approveMax,\n        uint8 v,\n        bytes32 r,\n        bytes32 s\n    ) external virtual override returns (uint256 amountToken, uint256 amountETH) {\n        address pair = pairFor(token, WETH);\n        uint256 value = approveMax ? MASK : liquidity;\n        IHashPair(pair).permit(msg.sender, address(this), value, deadline, v, r, s);\n        (amountToken, amountETH) = removeLiquidityETH(token, liquidity, amountTokenMin, amountETHMin, to, deadline);\n    }\n\n    // **** REMOVE LIQUIDITY (supporting fee-on-transfer tokens) ****\n    function removeLiquidityETHSupportingFeeOnTransferTokens(\n        address token,\n        uint256 liquidity,\n        uint256 amountTokenMin,\n        uint256 amountETHMin,\n        address to,\n        uint256 deadline\n    ) public virtual override ensure(deadline) returns (uint256 amountETH) {\n        (, amountETH) = removeLiquidity(token, WETH, liquidity, amountTokenMin, amountETHMin, address(this), deadline);\n        TransferHelper.safeTransfer(token, to, IERC20(token).balanceOf(address(this)));\n        IWETH(WETH).withdraw(amountETH);\n        TransferHelper.safeTransferETH(to, amountETH);\n    }\n\n    function removeLiquidityETHWithPermitSupportingFeeOnTransferTokens(\n        address token,\n        uint256 liquidity,\n        uint256 amountTokenMin,\n        uint256 amountETHMin,\n        address to,\n        uint256 deadline,\n        bool approveMax,\n        uint8 v,\n        bytes32 r,\n        bytes32 s\n    ) external virtual override returns (uint256 amountETH) {\n        address pair = pairFor(token, WETH);\n        uint256 value = approveMax ? MASK : liquidity;\n        IHashPair(pair).permit(msg.sender, address(this), value, deadline, v, r, s);\n        amountETH = removeLiquidityETHSupportingFeeOnTransferTokens(\n            token,\n            liquidity,\n            amountTokenMin,\n            amountETHMin,\n            to,\n            deadline\n        );\n    }\n\n    // **** SWAP ****\n    // requires the initial amount to have already been sent to the first pair\n    function _swap(\n        uint256[] memory amounts,\n        address[] memory path,\n        address _to\n    ) internal virtual {\n        for (uint256 i; i < path.length - 1; i++) {\n            (address input, address output) = (path[i], path[i + 1]);\n            (address token0, ) = sortTokens(input, output);\n            uint256 amountOut = amounts[i + 1];\n            (uint256 amount0Out, uint256 amount1Out) = input == token0\n                ? (uint256(0), amountOut)\n                : (amountOut, uint256(0));\n            address to = i < path.length - 2 ? pairFor(output, path[i + 2]) : _to;\n            IHashPair(pairFor(input, output)).swap(amount0Out, amount1Out, to, new bytes(0));\n        }\n    }\n\n    function swapExactTokensForTokens(\n        uint256 amountIn,\n        uint256 amountOutMin,\n        address[] calldata path,\n        address to,\n        uint256 deadline\n    ) external virtual override ensure(deadline) returns (uint256[] memory amounts) {\n        amounts = getAmountsOut(amountIn, path);\n        require(amounts[amounts.length - 1] >= amountOutMin, 'HashRouter: INSUFFICIENT_OUTPUT_AMOUNT');\n        TransferHelper.safeTransferFrom(path[0], msg.sender, pairFor(path[0], path[1]), amounts[0]);\n        _swap(amounts, path, to);\n    }\n\n    function swapTokensForExactTokens(\n        uint256 amountOut,\n        uint256 amountInMax,\n        address[] calldata path,\n        address to,\n        uint256 deadline\n    ) external virtual override ensure(deadline) returns (uint256[] memory amounts) {\n        amounts = getAmountsIn(amountOut, path);\n        require(amounts[0] <= amountInMax, 'HashRouter: EXCESSIVE_INPUT_AMOUNT');\n        TransferHelper.safeTransferFrom(path[0], msg.sender, pairFor(path[0], path[1]), amounts[0]);\n        _swap(amounts, path, to);\n    }\n\n    function swapExactETHForTokens(\n        uint256 amountOutMin,\n        address[] calldata path,\n        address to,\n        uint256 deadline\n    ) external payable virtual override ensure(deadline) returns (uint256[] memory amounts) {\n        require(path[0] == WETH, 'HashRouter: INVALID_PATH');\n        amounts = getAmountsOut(msg.value, path);\n        require(amounts[amounts.length - 1] >= amountOutMin, 'HashRouter: INSUFFICIENT_OUTPUT_AMOUNT');\n        IWETH(WETH).deposit{value: amounts[0]}();\n        assert(IWETH(WETH).transfer(pairFor(path[0], path[1]), amounts[0]));\n        _swap(amounts, path, to);\n    }\n\n    function swapTokensForExactETH(\n        uint256 amountOut,\n        uint256 amountInMax,\n        address[] calldata path,\n        address to,\n        uint256 deadline\n    ) external virtual override ensure(deadline) returns (uint256[] memory amounts) {\n        require(path[path.length - 1] == WETH, 'HashRouter: INVALID_PATH');\n        amounts = getAmountsIn(amountOut, path);\n        require(amounts[0] <= amountInMax, 'HashRouter: EXCESSIVE_INPUT_AMOUNT');\n        TransferHelper.safeTransferFrom(path[0], msg.sender, pairFor(path[0], path[1]), amounts[0]);\n        _swap(amounts, path, address(this));\n        IWETH(WETH).withdraw(amounts[amounts.length - 1]);\n        TransferHelper.safeTransferETH(to, amounts[amounts.length - 1]);\n    }\n\n    function swapExactTokensForETH(\n        uint256 amountIn,\n        uint256 amountOutMin,\n        address[] calldata path,\n        address to,\n        uint256 deadline\n    ) external virtual override ensure(deadline) returns (uint256[] memory amounts) {\n        require(path[path.length - 1] == WETH, 'HashRouter: INVALID_PATH');\n        amounts = getAmountsOut(amountIn, path);\n        require(amounts[amounts.length - 1] >= amountOutMin, 'HashRouter: INSUFFICIENT_OUTPUT_AMOUNT');\n        TransferHelper.safeTransferFrom(path[0], msg.sender, pairFor(path[0], path[1]), amounts[0]);\n        _swap(amounts, path, address(this));\n        IWETH(WETH).withdraw(amounts[amounts.length - 1]);\n        TransferHelper.safeTransferETH(to, amounts[amounts.length - 1]);\n    }\n\n    function swapETHForExactTokens(\n        uint256 amountOut,\n        address[] calldata path,\n        address to,\n        uint256 deadline\n    ) external payable virtual override ensure(deadline) returns (uint256[] memory amounts) {\n        require(path[0] == WETH, 'HashRouter: INVALID_PATH');\n        amounts = getAmountsIn(amountOut, path);\n        require(amounts[0] <= msg.value, 'HashRouter: EXCESSIVE_INPUT_AMOUNT');\n        IWETH(WETH).deposit{value: amounts[0]}();\n        assert(IWETH(WETH).transfer(pairFor(path[0], path[1]), amounts[0]));\n        _swap(amounts, path, to);\n        // refund dust eth, if any\n        if (msg.value > amounts[0]) TransferHelper.safeTransferETH(msg.sender, msg.value - amounts[0]);\n    }\n\n    // **** SWAP (supporting fee-on-transfer tokens) ****\n    // requires the initial amount to have already been sent to the first pair\n    function _swapSupportingFeeOnTransferTokens(address[] memory path, address _to) internal virtual {\n        for (uint256 i; i < path.length - 1; i++) {\n            (address input, address output) = (path[i], path[i + 1]);\n            (address token0, ) = sortTokens(input, output);\n            IHashPair pair = IHashPair(pairFor(input, output));\n            uint256 amountInput;\n            uint256 amountOutput;\n            {\n                // scope to avoid stack too deep errors\n                (uint256 reserve0, uint256 reserve1, ) = pair.getReserves();\n                (uint256 reserveInput, uint256 reserveOutput) = input == token0\n                    ? (reserve0, reserve1)\n                    : (reserve1, reserve0);\n                amountInput = IERC20(input).balanceOf(address(pair)).sub(reserveInput);\n                amountOutput = getAmountOut(amountInput, reserveInput, reserveOutput);\n            }\n            (uint256 amount0Out, uint256 amount1Out) = input == token0\n                ? (uint256(0), amountOutput)\n                : (amountOutput, uint256(0));\n            address to = i < path.length - 2 ? pairFor(output, path[i + 2]) : _to;\n            pair.swap(amount0Out, amount1Out, to, new bytes(0));\n        }\n    }\n\n    function swapExactTokensForTokensSupportingFeeOnTransferTokens(\n        uint256 amountIn,\n        uint256 amountOutMin,\n        address[] calldata path,\n        address to,\n        uint256 deadline\n    ) external virtual override ensure(deadline) {\n        TransferHelper.safeTransferFrom(path[0], msg.sender, pairFor(path[0], path[1]), amountIn);\n        uint256 balanceBefore = IERC20(path[path.length - 1]).balanceOf(to);\n        _swapSupportingFeeOnTransferTokens(path, to);\n        require(\n            IERC20(path[path.length - 1]).balanceOf(to).sub(balanceBefore) >= amountOutMin,\n            'HashRouter: INSUFFICIENT_OUTPUT_AMOUNT'\n        );\n    }\n\n    function swapExactETHForTokensSupportingFeeOnTransferTokens(\n        uint256 amountOutMin,\n        address[] calldata path,\n        address to,\n        uint256 deadline\n    ) external payable virtual override ensure(deadline) {\n        require(path[0] == WETH, 'HashRouter: INVALID_PATH');\n        uint256 amountIn = msg.value;\n        IWETH(WETH).deposit{value: amountIn}();\n        assert(IWETH(WETH).transfer(pairFor(path[0], path[1]), amountIn));\n        uint256 balanceBefore = IERC20(path[path.length - 1]).balanceOf(to);\n        _swapSupportingFeeOnTransferTokens(path, to);\n        require(\n            IERC20(path[path.length - 1]).balanceOf(to).sub(balanceBefore) >= amountOutMin,\n            'HashRouter: INSUFFICIENT_OUTPUT_AMOUNT'\n        );\n    }\n\n    function swapExactTokensForETHSupportingFeeOnTransferTokens(\n        uint256 amountIn,\n        uint256 amountOutMin,\n        address[] calldata path,\n        address to,\n        uint256 deadline\n    ) external virtual override ensure(deadline) {\n        require(path[path.length - 1] == WETH, 'HashRouter: INVALID_PATH');\n        TransferHelper.safeTransferFrom(path[0], msg.sender, pairFor(path[0], path[1]), amountIn);\n        _swapSupportingFeeOnTransferTokens(path, address(this));\n        uint256 amountOut = IERC20(WETH).balanceOf(address(this));\n        require(amountOut >= amountOutMin, 'HashRouter: INSUFFICIENT_OUTPUT_AMOUNT');\n        IWETH(WETH).withdraw(amountOut);\n        TransferHelper.safeTransferETH(to, amountOut);\n    }\n}\n",
  "sourcePath": "/workspace/Hashswap-core/contracts/HashRouter.sol",
  "compiler": {
    "name": "solc",
    "version": "0.8.6+commit.11564f7e.Emscripten.clang"
  },
  "schemaVersion": "3.4.8",
  "updatedAt": "2022-07-08T15:30:42.976Z",
  "devdoc": {
    "kind": "dev",
    "methods": {
      "owner()": {
        "details": "Returns the address of the current owner."
      },
      "renounceOwnership()": {
        "details": "Leaves the contract without owner. It will not be possible to call `onlyOwner` functions anymore. Can only be called by the current owner. NOTE: Renouncing ownership will leave the contract without an owner, thereby removing any functionality that is only available to the owner."
      },
      "transferOwnership(address)": {
        "details": "Transfers ownership of the contract to a new account (`newOwner`). Can only be called by the current owner."
      }
    },
    "version": 1
  },
  "userdoc": {
    "kind": "user",
    "methods": {},
    "version": 1
  }
}