{
  "contractName": "MasterChef",
  "abi": [
    {
      "inputs": [
        {
          "internalType": "contract HashSwapToken",
          "name": "_hash",
          "type": "address"
        },
        {
          "internalType": "address",
          "name": "_devaddr",
          "type": "address"
        },
        {
          "internalType": "address",
          "name": "_feeAddress",
          "type": "address"
        },
        {
          "internalType": "uint256",
          "name": "_hashPerBlock",
          "type": "uint256"
        }
      ],
      "stateMutability": "nonpayable",
      "type": "constructor"
    },
    {
      "anonymous": false,
      "inputs": [
        {
          "indexed": true,
          "internalType": "address",
          "name": "user",
          "type": "address"
        },
        {
          "indexed": true,
          "internalType": "uint256",
          "name": "pid",
          "type": "uint256"
        },
        {
          "indexed": false,
          "internalType": "uint256",
          "name": "amount",
          "type": "uint256"
        }
      ],
      "name": "Deposit",
      "type": "event"
    },
    {
      "anonymous": false,
      "inputs": [
        {
          "indexed": true,
          "internalType": "address",
          "name": "user",
          "type": "address"
        },
        {
          "indexed": true,
          "internalType": "uint256",
          "name": "pid",
          "type": "uint256"
        },
        {
          "indexed": false,
          "internalType": "uint256",
          "name": "amount",
          "type": "uint256"
        }
      ],
      "name": "EmergencyWithdraw",
      "type": "event"
    },
    {
      "anonymous": false,
      "inputs": [
        {
          "indexed": true,
          "internalType": "address",
          "name": "previousOwner",
          "type": "address"
        },
        {
          "indexed": true,
          "internalType": "address",
          "name": "newOwner",
          "type": "address"
        }
      ],
      "name": "OwnershipTransferred",
      "type": "event"
    },
    {
      "anonymous": false,
      "inputs": [
        {
          "indexed": true,
          "internalType": "address",
          "name": "user",
          "type": "address"
        },
        {
          "indexed": true,
          "internalType": "uint256",
          "name": "pid",
          "type": "uint256"
        },
        {
          "indexed": false,
          "internalType": "uint256",
          "name": "amount",
          "type": "uint256"
        }
      ],
      "name": "Withdraw",
      "type": "event"
    },
    {
      "inputs": [],
      "name": "BONUS_MULTIPLIER",
      "outputs": [
        {
          "internalType": "uint256",
          "name": "",
          "type": "uint256"
        }
      ],
      "stateMutability": "view",
      "type": "function",
      "constant": true
    },
    {
      "inputs": [],
      "name": "devaddr",
      "outputs": [
        {
          "internalType": "address",
          "name": "",
          "type": "address"
        }
      ],
      "stateMutability": "view",
      "type": "function",
      "constant": true
    },
    {
      "inputs": [],
      "name": "feeAddress",
      "outputs": [
        {
          "internalType": "address",
          "name": "",
          "type": "address"
        }
      ],
      "stateMutability": "view",
      "type": "function",
      "constant": true
    },
    {
      "inputs": [],
      "name": "hash",
      "outputs": [
        {
          "internalType": "contract HashSwapToken",
          "name": "",
          "type": "address"
        }
      ],
      "stateMutability": "view",
      "type": "function",
      "constant": true
    },
    {
      "inputs": [],
      "name": "hashPerBlock",
      "outputs": [
        {
          "internalType": "uint256",
          "name": "",
          "type": "uint256"
        }
      ],
      "stateMutability": "view",
      "type": "function",
      "constant": true
    },
    {
      "inputs": [],
      "name": "owner",
      "outputs": [
        {
          "internalType": "address",
          "name": "",
          "type": "address"
        }
      ],
      "stateMutability": "view",
      "type": "function",
      "constant": true
    },
    {
      "inputs": [
        {
          "internalType": "uint256",
          "name": "",
          "type": "uint256"
        }
      ],
      "name": "poolInfo",
      "outputs": [
        {
          "internalType": "contract IBEP20",
          "name": "lpToken",
          "type": "address"
        },
        {
          "internalType": "uint256",
          "name": "allocPoint",
          "type": "uint256"
        },
        {
          "internalType": "uint256",
          "name": "lastRewardBlock",
          "type": "uint256"
        },
        {
          "internalType": "uint256",
          "name": "accHashPerShare",
          "type": "uint256"
        },
        {
          "internalType": "uint16",
          "name": "depositFeeBP",
          "type": "uint16"
        }
      ],
      "stateMutability": "view",
      "type": "function",
      "constant": true
    },
    {
      "inputs": [],
      "name": "renounceOwnership",
      "outputs": [],
      "stateMutability": "nonpayable",
      "type": "function"
    },
    {
      "inputs": [],
      "name": "startBlock",
      "outputs": [
        {
          "internalType": "uint256",
          "name": "",
          "type": "uint256"
        }
      ],
      "stateMutability": "view",
      "type": "function",
      "constant": true
    },
    {
      "inputs": [],
      "name": "totalAllocPoint",
      "outputs": [
        {
          "internalType": "uint256",
          "name": "",
          "type": "uint256"
        }
      ],
      "stateMutability": "view",
      "type": "function",
      "constant": true
    },
    {
      "inputs": [
        {
          "internalType": "address",
          "name": "newOwner",
          "type": "address"
        }
      ],
      "name": "transferOwnership",
      "outputs": [],
      "stateMutability": "nonpayable",
      "type": "function"
    },
    {
      "inputs": [
        {
          "internalType": "uint256",
          "name": "",
          "type": "uint256"
        },
        {
          "internalType": "address",
          "name": "",
          "type": "address"
        }
      ],
      "name": "userInfo",
      "outputs": [
        {
          "internalType": "uint256",
          "name": "amount",
          "type": "uint256"
        },
        {
          "internalType": "uint256",
          "name": "rewardDebt",
          "type": "uint256"
        }
      ],
      "stateMutability": "view",
      "type": "function",
      "constant": true
    },
    {
      "inputs": [],
      "name": "poolLength",
      "outputs": [
        {
          "internalType": "uint256",
          "name": "",
          "type": "uint256"
        }
      ],
      "stateMutability": "view",
      "type": "function",
      "constant": true
    },
    {
      "inputs": [
        {
          "internalType": "uint256",
          "name": "_startBlock",
          "type": "uint256"
        }
      ],
      "name": "setStartBlock",
      "outputs": [],
      "stateMutability": "nonpayable",
      "type": "function"
    },
    {
      "inputs": [
        {
          "internalType": "uint256",
          "name": "_allocPoint",
          "type": "uint256"
        },
        {
          "internalType": "contract IBEP20",
          "name": "_lpToken",
          "type": "address"
        },
        {
          "internalType": "uint16",
          "name": "_depositFeeBP",
          "type": "uint16"
        },
        {
          "internalType": "bool",
          "name": "_withUpdate",
          "type": "bool"
        }
      ],
      "name": "add",
      "outputs": [],
      "stateMutability": "nonpayable",
      "type": "function"
    },
    {
      "inputs": [
        {
          "internalType": "uint256",
          "name": "_pid",
          "type": "uint256"
        },
        {
          "internalType": "uint256",
          "name": "_allocPoint",
          "type": "uint256"
        },
        {
          "internalType": "uint16",
          "name": "_depositFeeBP",
          "type": "uint16"
        },
        {
          "internalType": "bool",
          "name": "_withUpdate",
          "type": "bool"
        }
      ],
      "name": "set",
      "outputs": [],
      "stateMutability": "nonpayable",
      "type": "function"
    },
    {
      "inputs": [
        {
          "internalType": "uint256",
          "name": "_from",
          "type": "uint256"
        },
        {
          "internalType": "uint256",
          "name": "_to",
          "type": "uint256"
        }
      ],
      "name": "getMultiplier",
      "outputs": [
        {
          "internalType": "uint256",
          "name": "",
          "type": "uint256"
        }
      ],
      "stateMutability": "pure",
      "type": "function",
      "constant": true
    },
    {
      "inputs": [
        {
          "internalType": "uint256",
          "name": "_pid",
          "type": "uint256"
        },
        {
          "internalType": "address",
          "name": "_user",
          "type": "address"
        }
      ],
      "name": "pendingHash",
      "outputs": [
        {
          "internalType": "uint256",
          "name": "",
          "type": "uint256"
        }
      ],
      "stateMutability": "view",
      "type": "function",
      "constant": true
    },
    {
      "inputs": [],
      "name": "massUpdatePools",
      "outputs": [],
      "stateMutability": "nonpayable",
      "type": "function"
    },
    {
      "inputs": [
        {
          "internalType": "uint256",
          "name": "_pid",
          "type": "uint256"
        }
      ],
      "name": "updatePool",
      "outputs": [],
      "stateMutability": "nonpayable",
      "type": "function"
    },
    {
      "inputs": [
        {
          "internalType": "uint256",
          "name": "_pid",
          "type": "uint256"
        },
        {
          "internalType": "uint256",
          "name": "_amount",
          "type": "uint256"
        }
      ],
      "name": "deposit",
      "outputs": [],
      "stateMutability": "nonpayable",
      "type": "function"
    },
    {
      "inputs": [
        {
          "internalType": "uint256",
          "name": "_pid",
          "type": "uint256"
        },
        {
          "internalType": "uint256",
          "name": "_amount",
          "type": "uint256"
        }
      ],
      "name": "withdraw",
      "outputs": [],
      "stateMutability": "nonpayable",
      "type": "function"
    },
    {
      "inputs": [
        {
          "internalType": "uint256",
          "name": "_pid",
          "type": "uint256"
        }
      ],
      "name": "emergencyWithdraw",
      "outputs": [],
      "stateMutability": "nonpayable",
      "type": "function"
    },
    {
      "inputs": [
        {
          "internalType": "address",
          "name": "_devaddr",
          "type": "address"
        }
      ],
      "name": "dev",
      "outputs": [],
      "stateMutability": "nonpayable",
      "type": "function"
    },
    {
      "inputs": [
        {
          "internalType": "address",
          "name": "_feeAddress",
          "type": "address"
        }
      ],
      "name": "setFeeAddress",
      "outputs": [],
      "stateMutability": "nonpayable",
      "type": "function"
    },
    {
      "inputs": [
        {
          "internalType": "uint256",
          "name": "_hashPerBlock",
          "type": "uint256"
        }
      ],
      "name": "updateEmissionRate",
      "outputs": [],
      "stateMutability": "nonpayable",
      "type": "function"
    }
  ],
  "bytecode": "0x608060405260006007553480156200001657600080fd5b5060405162001a3a38038062001a3a8339810160408190526200003991620000da565b62000044336200008a565b600180546001600160a01b03199081166001600160a01b03968716179091556002805482169486169490941790935560048054909316919093161790556003556200014d565b600080546001600160a01b038381166001600160a01b0319831681178455604051919092169283917f8be0079c531659141344cd1fd0a4f28419497f9722a3daafe3b4186f6b6457e09190a35050565b60008060008060808587031215620000f157600080fd5b8451620000fe8162000134565b6020860151909450620001118162000134565b6040860151909350620001248162000134565b6060959095015193969295505050565b6001600160a01b03811681146200014a57600080fd5b50565b6118dd806200015d6000396000f3fe608060405234801561001057600080fd5b506004361061018e5760003560e01c806384e82a33116100de5780638dbb1e3a11610097578063d963842211610071578063d96384221461037c578063e2bbb1581461038f578063f2fde38b146103a2578063f35e4a6e146103b557600080fd5b80638dbb1e3a1461030f57806393f1a40b14610322578063d49e77cd1461036957600080fd5b806384e82a33146102b45780638573ef47146102c75780638705fcd4146102d05780638aa28550146102e35780638d88a90e146102eb5780638da5cb5b146102fe57600080fd5b8063412753581161014b57806351eb05a61161012557806351eb05a61461027e5780635312ea8e14610291578063630b5ba1146102a4578063715018a6146102ac57600080fd5b8063412753581461024f578063441a3e701461026257806348cd4cb11461027557600080fd5b8063081e3eda1461019357806309bd5a60146101aa5780630ba84cd2146101d55780630f259f92146101ea5780631526fe27146101fd57806317caf6f114610246575b600080fd5b6005545b6040519081526020015b60405180910390f35b6001546101bd906001600160a01b031681565b6040516001600160a01b0390911681526020016101a1565b6101e86101e336600461161b565b6103c8565b005b6101976101f836600461164d565b610408565b61021061020b36600461161b565b610585565b604080516001600160a01b039096168652602086019490945292840191909152606083015261ffff16608082015260a0016101a1565b61019760075481565b6004546101bd906001600160a01b031681565b6101e86102703660046116ce565b6105d4565b61019760085481565b6101e861028c36600461161b565b610728565b6101e861029f36600461161b565b610957565b6101e86109fa565b6101e8610a25565b6101e86102c236600461167d565b610a5b565b61019760035481565b6101e86102de3660046115e1565b610c54565b610197600181565b6101e86102f93660046115e1565b610cd0565b6000546001600160a01b03166101bd565b61019761031d3660046116ce565b610d38565b61035461033036600461164d565b60066020908152600092835260408084209091529082529020805460019091015482565b604080519283526020830191909152016101a1565b6002546101bd906001600160a01b031681565b6101e861038a3660046116f0565b610d50565b6101e861039d3660046116ce565b610ea3565b6101e86103b03660046115e1565b611018565b6101e86103c336600461161b565b6110b3565b6000546001600160a01b031633146103fb5760405162461bcd60e51b81526004016103f29061176c565b60405180910390fd5b6104036109fa565b600355565b6000806005848154811061041e5761041e61186e565b600091825260208083208784526006825260408085206001600160a01b03898116875293528085206005949094029091016003810154815492516370a0823160e01b815230600482015291965093949291909116906370a082319060240160206040518083038186803b15801561049457600080fd5b505afa1580156104a8573d6000803e3d6000fd5b505050506040513d601f19601f820116820180604052508101906104cc9190611634565b90508360020154431180156104e057508015155b1561054c5760006104f5856002015443610d38565b90506000610528600754610522886001015461051c6003548761112490919063ffffffff16565b90611124565b90611130565b9050610547610540846105228464e8d4a51000611124565b859061113c565b935050505b61057a836001015461057464e8d4a5100061052286886000015461112490919063ffffffff16565b90611148565b979650505050505050565b6005818154811061059557600080fd5b6000918252602090912060059091020180546001820154600283015460038401546004909401546001600160a01b0390931694509092909161ffff1685565b6000600583815481106105e9576105e961186e565b6000918252602080832086845260068252604080852033865290925292208054600590920290920192508311156106575760405162461bcd60e51b81526020600482015260126024820152711dda5d1a191c985dce881b9bdd0819dbdbd960721b60448201526064016103f2565b61066084610728565b600061068e826001015461057464e8d4a510006105228760030154876000015461112490919063ffffffff16565b905080156106a0576106a03382611154565b83156106ca5781546106b29085611148565b825582546106ca906001600160a01b031633866112a5565b600383015482546106e59164e8d4a510009161052291611124565b6001830155604051848152859033907ff279e6a1f5e320cca91135676d9cb6e44ca8a08c0b88342bcdb1144f6511b5689060200160405180910390a35050505050565b60006005828154811061073d5761073d61186e565b906000526020600020906005020190508060020154431161075c575050565b80546040516370a0823160e01b81523060048201526000916001600160a01b0316906370a082319060240160206040518083038186803b15801561079f57600080fd5b505afa1580156107b3573d6000803e3d6000fd5b505050506040513d601f19601f820116820180604052508101906107d79190611634565b90508015806107e857506001820154155b156107f857504360029091015550565b6000610808836002015443610d38565b9050600061082f600754610522866001015461051c6003548761112490919063ffffffff16565b6001546002549192506001600160a01b03908116916340c10f19911661085684600a611130565b6040516001600160e01b031960e085901b1681526001600160a01b0390921660048301526024820152604401600060405180830381600087803b15801561089c57600080fd5b505af11580156108b0573d6000803e3d6000fd5b50506001546040516340c10f1960e01b8152306004820152602481018590526001600160a01b0390911692506340c10f199150604401600060405180830381600087803b15801561090057600080fd5b505af1158015610914573d6000803e3d6000fd5b505050506109426109378461052264e8d4a510008561112490919063ffffffff16565b60038601549061113c565b60038501555050436002909201919091555050565b60006005828154811061096c5761096c61186e565b6000918252602080832085845260068252604080852033808752935284208054858255600182019590955560059093020180549094509192916109bc916001600160a01b039190911690836112a5565b604051818152849033907fbb757047c2b5f3974fe26b7c10f732e7bce710b0952a71082702781e62ae0595906020015b60405180910390a350505050565b60055460005b81811015610a2157610a1181610728565b610a1a8161183d565b9050610a00565b5050565b6000546001600160a01b03163314610a4f5760405162461bcd60e51b81526004016103f29061176c565b610a596000611308565b565b6000546001600160a01b03163314610a855760405162461bcd60e51b81526004016103f29061176c565b6127108261ffff161115610ae95760405162461bcd60e51b815260206004820152602560248201527f6164643a20696e76616c6964206465706f7369742066656520626173697320706044820152646f696e747360d81b60648201526084016103f2565b8015610af757610af76109fa565b60006008544311610b0a57600854610b0c565b435b600754909150610b1c908661113c565b6007556040805160a0810182526001600160a01b0395861681526020810196875290810191825260006060820181815261ffff95861660808401908152600580546001810182559381905293517f036b6384b5eca791c62761152d0c79bb0604c104a5fb6f4eb0703f3154bb3db09390940292830180546001600160a01b031916949098169390931790965595517f036b6384b5eca791c62761152d0c79bb0604c104a5fb6f4eb0703f3154bb3db187015590517f036b6384b5eca791c62761152d0c79bb0604c104a5fb6f4eb0703f3154bb3db286015592517f036b6384b5eca791c62761152d0c79bb0604c104a5fb6f4eb0703f3154bb3db38501555090517f036b6384b5eca791c62761152d0c79bb0604c104a5fb6f4eb0703f3154bb3db4909201805461ffff191692909116919091179055565b6004546001600160a01b03163314610cae5760405162461bcd60e51b815260206004820152601860248201527f736574466565416464726573733a20464f5242494444454e000000000000000060448201526064016103f2565b600480546001600160a01b0319166001600160a01b0392909216919091179055565b6002546001600160a01b03163314610d165760405162461bcd60e51b81526020600482015260096024820152686465763a207775743f60b81b60448201526064016103f2565b600280546001600160a01b0319166001600160a01b0392909216919091179055565b6000610d49600161051c8486611148565b9392505050565b6000546001600160a01b03163314610d7a5760405162461bcd60e51b81526004016103f29061176c565b6127108261ffff161115610dde5760405162461bcd60e51b815260206004820152602560248201527f7365743a20696e76616c6964206465706f7369742066656520626173697320706044820152646f696e747360d81b60648201526084016103f2565b8015610dec57610dec6109fa565b610e2f83610e2960058781548110610e0657610e0661186e565b90600052602060002090600502016001015460075461114890919063ffffffff16565b9061113c565b6007819055508260058581548110610e4957610e4961186e565b9060005260206000209060050201600101819055508160058581548110610e7257610e7261186e565b906000526020600020906005020160040160006101000a81548161ffff021916908361ffff16021790555050505050565b600060058381548110610eb857610eb861186e565b60009182526020808320868452600682526040808520338652909252922060059091029091019150610ee984610728565b805415610f32576000610f1e826001015461057464e8d4a510006105228760030154876000015461112490919063ffffffff16565b90508015610f3057610f303382611154565b505b8215610fc4578154610f4f906001600160a01b0316333086611358565b600482015461ffff1615610fb5576004820154600090610f7c906127109061052290879061ffff16611124565b6004548454919250610f9b916001600160a01b039081169116836112a5565b8154610fad908290610574908761113c565b825550610fc4565b8054610fc1908461113c565b81555b60038201548154610fdf9164e8d4a510009161052291611124565b6001820155604051838152849033907f90890809c654f11d6e72a28fa60149770a0d11ec6c92319d6ceb2bb0a4ea1a15906020016109ec565b6000546001600160a01b031633146110425760405162461bcd60e51b81526004016103f29061176c565b6001600160a01b0381166110a75760405162461bcd60e51b815260206004820152602660248201527f4f776e61626c653a206e6577206f776e657220697320746865207a65726f206160448201526564647265737360d01b60648201526084016103f2565b6110b081611308565b50565b6000546001600160a01b031633146110dd5760405162461bcd60e51b81526004016103f29061176c565b6008541561111f5760405162461bcd60e51b815260206004820152600f60248201526e185b1c9958591e481cdd185c9d1959608a1b60448201526064016103f2565b600855565b6000610d4982846117db565b6000610d4982846117b9565b6000610d4982846117a1565b6000610d4982846117fa565b6001546040516370a0823160e01b81523060048201526000916001600160a01b0316906370a082319060240160206040518083038186803b15801561119857600080fd5b505afa1580156111ac573d6000803e3d6000fd5b505050506040513d601f19601f820116820180604052508101906111d09190611634565b9050808211156112675760015460405163a9059cbb60e01b81526001600160a01b038581166004830152602482018490529091169063a9059cbb906044015b602060405180830381600087803b15801561122957600080fd5b505af115801561123d573d6000803e3d6000fd5b505050506040513d601f19601f8201168201806040525081019061126191906115fe565b50505050565b60015460405163a9059cbb60e01b81526001600160a01b038581166004830152602482018590529091169063a9059cbb9060440161120f565b505050565b6040516001600160a01b0383166024820152604481018290526112a090849063a9059cbb60e01b906064015b60408051601f198184030181529190526020810180516001600160e01b03166001600160e01b031990931692909217909152611390565b600080546001600160a01b038381166001600160a01b0319831681178455604051919092169283917f8be0079c531659141344cd1fd0a4f28419497f9722a3daafe3b4186f6b6457e09190a35050565b6040516001600160a01b03808516602483015283166044820152606481018290526112619085906323b872dd60e01b906084016112d1565b60006113e5826040518060400160405280602081526020017f5361666542455032303a206c6f772d6c6576656c2063616c6c206661696c6564815250856001600160a01b03166114629092919063ffffffff16565b8051909150156112a0578080602001905181019061140391906115fe565b6112a05760405162461bcd60e51b815260206004820152602a60248201527f5361666542455032303a204245503230206f7065726174696f6e20646964206e6044820152691bdd081cdd58d8d9595960b21b60648201526084016103f2565b60606114718484600085611479565b949350505050565b6060824710156114da5760405162461bcd60e51b815260206004820152602660248201527f416464726573733a20696e73756666696369656e742062616c616e636520666f6044820152651c8818d85b1b60d21b60648201526084016103f2565b843b6115285760405162461bcd60e51b815260206004820152601d60248201527f416464726573733a2063616c6c20746f206e6f6e2d636f6e747261637400000060448201526064016103f2565b600080866001600160a01b03168587604051611544919061171d565b60006040518083038185875af1925050503d8060008114611581576040519150601f19603f3d011682016040523d82523d6000602084013e611586565b606091505b509150915061057a828286606083156115a0575081610d49565b8251156115b05782518084602001fd5b8160405162461bcd60e51b81526004016103f29190611739565b803561ffff811681146115dc57600080fd5b919050565b6000602082840312156115f357600080fd5b8135610d4981611884565b60006020828403121561161057600080fd5b8151610d4981611899565b60006020828403121561162d57600080fd5b5035919050565b60006020828403121561164657600080fd5b5051919050565b6000806040838503121561166057600080fd5b82359150602083013561167281611884565b809150509250929050565b6000806000806080858703121561169357600080fd5b8435935060208501356116a581611884565b92506116b3604086016115ca565b915060608501356116c381611899565b939692955090935050565b600080604083850312156116e157600080fd5b50508035926020909101359150565b6000806000806080858703121561170657600080fd5b84359350602085013592506116b3604086016115ca565b6000825161172f818460208701611811565b9190910192915050565b6020815260008251806020840152611758816040850160208701611811565b601f01601f19169190910160400192915050565b6020808252818101527f4f776e61626c653a2063616c6c6572206973206e6f7420746865206f776e6572604082015260600190565b600082198211156117b4576117b4611858565b500190565b6000826117d657634e487b7160e01b600052601260045260246000fd5b500490565b60008160001904831182151516156117f5576117f5611858565b500290565b60008282101561180c5761180c611858565b500390565b60005b8381101561182c578181015183820152602001611814565b838111156112615750506000910152565b600060001982141561185157611851611858565b5060010190565b634e487b7160e01b600052601160045260246000fd5b634e487b7160e01b600052603260045260246000fd5b6001600160a01b03811681146110b057600080fd5b80151581146110b057600080fdfea264697066735822122088772dc97cb8186e63d13d2bb6789deea3ac811dff9ab456a58f995a178bf54264736f6c63430008060033",
  "immutableReferences": {},
  "source": "// SPDX-License-Identifier: MIT\npragma solidity ^0.8.0;\n\nimport './libraries/SafeMath.sol';\nimport './interfaces/IBEP20.sol';\nimport './SafeBEP20.sol';\nimport './libraries/Ownable.sol';\nimport './HashSwapToken.sol';\n\ncontract MasterChef is Ownable {\n    using SafeMath for uint256;\n    using SafeBEP20 for IBEP20;\n\n    // Info of each user.\n    struct UserInfo {\n        uint256 amount; // How many LP tokens the user has provided.\n        uint256 rewardDebt; // Reward debt. See explanation below.\n        //\n        // We do some fancy math here. Basically, any point in time, the amount of YAMADAs\n        // entitled to a user but is pending to be distributed is:\n        //\n        //   pending reward = (user.amount * pool.accHashPerShare) - user.rewardDebt\n        //\n        // Whenever a user deposits or withdraws LP tokens to a pool. Here's what happens:\n        //   1. The pool's `accHashPerShare` (and `lastRewardBlock`) gets updated.\n        //   2. User receives the pending reward sent to his/her address.\n        //   3. User's `amount` gets updated.\n        //   4. User's `rewardDebt` gets updated.\n    }\n\n    // Info of each pool.\n    struct PoolInfo {\n        IBEP20 lpToken; // Address of LP token contract.\n        uint256 allocPoint; // How many allocation points assigned to this pool. YAMADAs to distribute per block.\n        uint256 lastRewardBlock; // Last block number that YAMADAs distribution occurs.\n        uint256 accHashPerShare; // Accumulated YAMADAs per share, times 1e12. See below.\n        uint16 depositFeeBP; // Deposit fee in basis points\n    }\n\n    // The YAMADA TOKEN!\n    HashSwapToken public hash;\n    // Dev address.\n    address public devaddr;\n    // YAMADA tokens created per block.\n    uint256 public hashPerBlock;\n    // Bonus muliplier for early hash makers.\n    uint256 public constant BONUS_MULTIPLIER = 1;\n    // Deposit Fee address\n    address public feeAddress;\n\n    // Info of each pool.\n    PoolInfo[] public poolInfo;\n    // Info of each user that stakes LP tokens.\n    mapping(uint256 => mapping(address => UserInfo)) public userInfo;\n    // Total allocation points. Must be the sum of all allocation points in all pools.\n    uint256 public totalAllocPoint = 0;\n    // The block number when YAMADA mining starts.\n    uint256 public startBlock;\n\n    event Deposit(address indexed user, uint256 indexed pid, uint256 amount);\n    event Withdraw(address indexed user, uint256 indexed pid, uint256 amount);\n    event EmergencyWithdraw(address indexed user, uint256 indexed pid, uint256 amount);\n\n    constructor(\n        HashSwapToken _hash,\n        address _devaddr,\n        address _feeAddress,\n        uint256 _hashPerBlock\n    ) {\n        hash = _hash;\n        devaddr = _devaddr;\n        feeAddress = _feeAddress;\n        hashPerBlock = _hashPerBlock;\n    }\n\n    function poolLength() external view returns (uint256) {\n        return poolInfo.length;\n    }\n\n    function setStartBlock(uint256 _startBlock) public onlyOwner {\n        require(startBlock == 0, 'already started');\n        startBlock = _startBlock;\n    }\n\n    // Add a new lp to the pool. Can only be called by the owner.\n    // XXX DO NOT add the same LP token more than once. Rewards will be messed up if you do.\n    function add(\n        uint256 _allocPoint,\n        IBEP20 _lpToken,\n        uint16 _depositFeeBP,\n        bool _withUpdate\n    ) public onlyOwner {\n        require(_depositFeeBP <= 10000, 'add: invalid deposit fee basis points');\n        if (_withUpdate) {\n            massUpdatePools();\n        }\n        uint256 lastRewardBlock = block.number > startBlock ? block.number : startBlock;\n        totalAllocPoint = totalAllocPoint.add(_allocPoint);\n        poolInfo.push(\n            PoolInfo({\n                lpToken: _lpToken,\n                allocPoint: _allocPoint,\n                lastRewardBlock: lastRewardBlock,\n                accHashPerShare: 0,\n                depositFeeBP: _depositFeeBP\n            })\n        );\n    }\n\n    // Update the given pool's YAMADA allocation point and deposit fee. Can only be called by the owner.\n    function set(\n        uint256 _pid,\n        uint256 _allocPoint,\n        uint16 _depositFeeBP,\n        bool _withUpdate\n    ) public onlyOwner {\n        require(_depositFeeBP <= 10000, 'set: invalid deposit fee basis points');\n        if (_withUpdate) {\n            massUpdatePools();\n        }\n        totalAllocPoint = totalAllocPoint.sub(poolInfo[_pid].allocPoint).add(_allocPoint);\n        poolInfo[_pid].allocPoint = _allocPoint;\n        poolInfo[_pid].depositFeeBP = _depositFeeBP;\n    }\n\n    // Return reward multiplier over the given _from to _to block.\n    function getMultiplier(uint256 _from, uint256 _to) public pure returns (uint256) {\n        return _to.sub(_from).mul(BONUS_MULTIPLIER);\n    }\n\n    // View function to see pending YAMADAs on frontend.\n    function pendingHash(uint256 _pid, address _user) external view returns (uint256) {\n        PoolInfo storage pool = poolInfo[_pid];\n        UserInfo storage user = userInfo[_pid][_user];\n        uint256 accHashPerShare = pool.accHashPerShare;\n        uint256 lpSupply = pool.lpToken.balanceOf(address(this));\n        if (block.number > pool.lastRewardBlock && lpSupply != 0) {\n            uint256 multiplier = getMultiplier(pool.lastRewardBlock, block.number);\n            uint256 hashReward = multiplier.mul(hashPerBlock).mul(pool.allocPoint).div(totalAllocPoint);\n            accHashPerShare = accHashPerShare.add(hashReward.mul(1e12).div(lpSupply));\n        }\n        return user.amount.mul(accHashPerShare).div(1e12).sub(user.rewardDebt);\n    }\n\n    // Update reward variables for all pools. Be careful of gas spending!\n    function massUpdatePools() public {\n        uint256 length = poolInfo.length;\n        for (uint256 pid = 0; pid < length; ++pid) {\n            updatePool(pid);\n        }\n    }\n\n    // Update reward variables of the given pool to be up-to-date.\n    function updatePool(uint256 _pid) public {\n        PoolInfo storage pool = poolInfo[_pid];\n        if (block.number <= pool.lastRewardBlock) {\n            return;\n        }\n        uint256 lpSupply = pool.lpToken.balanceOf(address(this));\n        if (lpSupply == 0 || pool.allocPoint == 0) {\n            pool.lastRewardBlock = block.number;\n            return;\n        }\n        uint256 multiplier = getMultiplier(pool.lastRewardBlock, block.number);\n        uint256 hashReward = multiplier.mul(hashPerBlock).mul(pool.allocPoint).div(totalAllocPoint);\n        hash.mint(devaddr, hashReward.div(10));\n        hash.mint(address(this), hashReward);\n        pool.accHashPerShare = pool.accHashPerShare.add(hashReward.mul(1e12).div(lpSupply));\n        pool.lastRewardBlock = block.number;\n    }\n\n    // Deposit LP tokens to MasterChef for YAMADA allocation.\n    function deposit(uint256 _pid, uint256 _amount) public {\n        PoolInfo storage pool = poolInfo[_pid];\n        UserInfo storage user = userInfo[_pid][msg.sender];\n        updatePool(_pid);\n        if (user.amount > 0) {\n            uint256 pending = user.amount.mul(pool.accHashPerShare).div(1e12).sub(user.rewardDebt);\n            if (pending > 0) {\n                safeHashTransfer(msg.sender, pending);\n            }\n        }\n        if (_amount > 0) {\n            pool.lpToken.safeTransferFrom(address(msg.sender), address(this), _amount);\n            if (pool.depositFeeBP > 0) {\n                uint256 depositFee = _amount.mul(pool.depositFeeBP).div(10000);\n                pool.lpToken.safeTransfer(feeAddress, depositFee);\n                user.amount = user.amount.add(_amount).sub(depositFee);\n            } else {\n                user.amount = user.amount.add(_amount);\n            }\n        }\n        user.rewardDebt = user.amount.mul(pool.accHashPerShare).div(1e12);\n        emit Deposit(msg.sender, _pid, _amount);\n    }\n\n    // Withdraw LP tokens from MasterChef.\n    function withdraw(uint256 _pid, uint256 _amount) public {\n        PoolInfo storage pool = poolInfo[_pid];\n        UserInfo storage user = userInfo[_pid][msg.sender];\n        require(user.amount >= _amount, 'withdraw: not good');\n        updatePool(_pid);\n        uint256 pending = user.amount.mul(pool.accHashPerShare).div(1e12).sub(user.rewardDebt);\n        if (pending > 0) {\n            safeHashTransfer(msg.sender, pending);\n        }\n        if (_amount > 0) {\n            user.amount = user.amount.sub(_amount);\n            pool.lpToken.safeTransfer(address(msg.sender), _amount);\n        }\n        user.rewardDebt = user.amount.mul(pool.accHashPerShare).div(1e12);\n        emit Withdraw(msg.sender, _pid, _amount);\n    }\n\n    // Withdraw without caring about rewards. EMERGENCY ONLY.\n    function emergencyWithdraw(uint256 _pid) public {\n        PoolInfo storage pool = poolInfo[_pid];\n        UserInfo storage user = userInfo[_pid][msg.sender];\n        uint256 amount = user.amount;\n        user.amount = 0;\n        user.rewardDebt = 0;\n        pool.lpToken.safeTransfer(address(msg.sender), amount);\n        emit EmergencyWithdraw(msg.sender, _pid, amount);\n    }\n\n    // Safe hash transfer function, just in case if rounding error causes pool to not have enough YAMADAs.\n    function safeHashTransfer(address _to, uint256 _amount) internal {\n        uint256 hashBal = hash.balanceOf(address(this));\n        if (_amount > hashBal) {\n            hash.transfer(_to, hashBal);\n        } else {\n            hash.transfer(_to, _amount);\n        }\n    }\n\n    // Update dev address ba the previous dev.\n    function dev(address _devaddr) public {\n        require(msg.sender == devaddr, 'dev: wut?');\n        devaddr = _devaddr;\n    }\n\n    function setFeeAddress(address _feeAddress) public {\n        require(msg.sender == feeAddress, 'setFeeAddress: FORBIDDEN');\n        feeAddress = _feeAddress;\n    }\n\n    //Pancake has to add hidden dummy pools inorder to alter the emission, here we make it simple and transparent to all.\n    function updateEmissionRate(uint256 _hashPerBlock) public onlyOwner {\n        massUpdatePools();\n        hashPerBlock = _hashPerBlock;\n    }\n}\n",
  "sourcePath": "/workspace/Hashswap-core/contracts/MasterChef.sol",
  "compiler": {
    "name": "solc",
    "version": "0.8.6+commit.11564f7e.Emscripten.clang"
  },
  "schemaVersion": "3.4.8",
  "updatedAt": "2022-07-08T15:48:27.546Z",
  "networkType": "ethereum",
  "devdoc": {
    "kind": "dev",
    "methods": {
      "owner()": {
        "details": "Returns the address of the current owner."
      },
      "renounceOwnership()": {
        "details": "Leaves the contract without owner. It will not be possible to call `onlyOwner` functions anymore. Can only be called by the current owner. NOTE: Renouncing ownership will leave the contract without an owner, thereby removing any functionality that is only available to the owner."
      },
      "transferOwnership(address)": {
        "details": "Transfers ownership of the contract to a new account (`newOwner`). Can only be called by the current owner."
      }
    },
    "version": 1
  },
  "userdoc": {
    "kind": "user",
    "methods": {},
    "version": 1
  }
}